{
  "_format": "hh-sol-artifact-1",
  "contractName": "ERC1155PresetMinterPauserUpgradeable",
  "sourceName": "contracts/token/ERC1155/presets/ERC1155PresetMinterPauserUpgradeable.sol",
  "abi": [
    {
      "anonymous": false,
      "inputs": [
        {
          "indexed": true,
          "internalType": "address",
          "name": "account",
          "type": "address"
        },
        {
          "indexed": true,
          "internalType": "address",
          "name": "operator",
          "type": "address"
        },
        {
          "indexed": false,
          "internalType": "bool",
          "name": "approved",
          "type": "bool"
        }
      ],
      "name": "ApprovalForAll",
      "type": "event"
    },
    {
      "anonymous": false,
      "inputs": [
        {
          "indexed": false,
          "internalType": "address",
          "name": "account",
          "type": "address"
        }
      ],
      "name": "Paused",
      "type": "event"
    },
    {
      "anonymous": false,
      "inputs": [
        {
          "indexed": true,
          "internalType": "bytes32",
          "name": "role",
          "type": "bytes32"
        },
        {
          "indexed": true,
          "internalType": "bytes32",
          "name": "previousAdminRole",
          "type": "bytes32"
        },
        {
          "indexed": true,
          "internalType": "bytes32",
          "name": "newAdminRole",
          "type": "bytes32"
        }
      ],
      "name": "RoleAdminChanged",
      "type": "event"
    },
    {
      "anonymous": false,
      "inputs": [
        {
          "indexed": true,
          "internalType": "bytes32",
          "name": "role",
          "type": "bytes32"
        },
        {
          "indexed": true,
          "internalType": "address",
          "name": "account",
          "type": "address"
        },
        {
          "indexed": true,
          "internalType": "address",
          "name": "sender",
          "type": "address"
        }
      ],
      "name": "RoleGranted",
      "type": "event"
    },
    {
      "anonymous": false,
      "inputs": [
        {
          "indexed": true,
          "internalType": "bytes32",
          "name": "role",
          "type": "bytes32"
        },
        {
          "indexed": true,
          "internalType": "address",
          "name": "account",
          "type": "address"
        },
        {
          "indexed": true,
          "internalType": "address",
          "name": "sender",
          "type": "address"
        }
      ],
      "name": "RoleRevoked",
      "type": "event"
    },
    {
      "anonymous": false,
      "inputs": [
        {
          "indexed": true,
          "internalType": "address",
          "name": "operator",
          "type": "address"
        },
        {
          "indexed": true,
          "internalType": "address",
          "name": "from",
          "type": "address"
        },
        {
          "indexed": true,
          "internalType": "address",
          "name": "to",
          "type": "address"
        },
        {
          "indexed": false,
          "internalType": "uint256[]",
          "name": "ids",
          "type": "uint256[]"
        },
        {
          "indexed": false,
          "internalType": "uint256[]",
          "name": "values",
          "type": "uint256[]"
        }
      ],
      "name": "TransferBatch",
      "type": "event"
    },
    {
      "anonymous": false,
      "inputs": [
        {
          "indexed": true,
          "internalType": "address",
          "name": "operator",
          "type": "address"
        },
        {
          "indexed": true,
          "internalType": "address",
          "name": "from",
          "type": "address"
        },
        {
          "indexed": true,
          "internalType": "address",
          "name": "to",
          "type": "address"
        },
        {
          "indexed": false,
          "internalType": "uint256",
          "name": "id",
          "type": "uint256"
        },
        {
          "indexed": false,
          "internalType": "uint256",
          "name": "value",
          "type": "uint256"
        }
      ],
      "name": "TransferSingle",
      "type": "event"
    },
    {
      "anonymous": false,
      "inputs": [
        {
          "indexed": false,
          "internalType": "string",
          "name": "value",
          "type": "string"
        },
        {
          "indexed": true,
          "internalType": "uint256",
          "name": "id",
          "type": "uint256"
        }
      ],
      "name": "URI",
      "type": "event"
    },
    {
      "anonymous": false,
      "inputs": [
        {
          "indexed": false,
          "internalType": "address",
          "name": "account",
          "type": "address"
        }
      ],
      "name": "Unpaused",
      "type": "event"
    },
    {
      "inputs": [],
      "name": "DEFAULT_ADMIN_ROLE",
      "outputs": [
        {
          "internalType": "bytes32",
          "name": "",
          "type": "bytes32"
        }
      ],
      "stateMutability": "view",
      "type": "function"
    },
    {
      "inputs": [],
      "name": "MINTER_ROLE",
      "outputs": [
        {
          "internalType": "bytes32",
          "name": "",
          "type": "bytes32"
        }
      ],
      "stateMutability": "view",
      "type": "function"
    },
    {
      "inputs": [],
      "name": "PAUSER_ROLE",
      "outputs": [
        {
          "internalType": "bytes32",
          "name": "",
          "type": "bytes32"
        }
      ],
      "stateMutability": "view",
      "type": "function"
    },
    {
      "inputs": [
        {
          "internalType": "address",
          "name": "account",
          "type": "address"
        },
        {
          "internalType": "uint256",
          "name": "id",
          "type": "uint256"
        }
      ],
      "name": "balanceOf",
      "outputs": [
        {
          "internalType": "uint256",
          "name": "",
          "type": "uint256"
        }
      ],
      "stateMutability": "view",
      "type": "function"
    },
    {
      "inputs": [
        {
          "internalType": "address[]",
          "name": "accounts",
          "type": "address[]"
        },
        {
          "internalType": "uint256[]",
          "name": "ids",
          "type": "uint256[]"
        }
      ],
      "name": "balanceOfBatch",
      "outputs": [
        {
          "internalType": "uint256[]",
          "name": "",
          "type": "uint256[]"
        }
      ],
      "stateMutability": "view",
      "type": "function"
    },
    {
      "inputs": [
        {
          "internalType": "address",
          "name": "account",
          "type": "address"
        },
        {
          "internalType": "uint256",
          "name": "id",
          "type": "uint256"
        },
        {
          "internalType": "uint256",
          "name": "value",
          "type": "uint256"
        }
      ],
      "name": "burn",
      "outputs": [],
      "stateMutability": "nonpayable",
      "type": "function"
    },
    {
      "inputs": [
        {
          "internalType": "address",
          "name": "account",
          "type": "address"
        },
        {
          "internalType": "uint256[]",
          "name": "ids",
          "type": "uint256[]"
        },
        {
          "internalType": "uint256[]",
          "name": "values",
          "type": "uint256[]"
        }
      ],
      "name": "burnBatch",
      "outputs": [],
      "stateMutability": "nonpayable",
      "type": "function"
    },
    {
      "inputs": [
        {
          "internalType": "bytes32",
          "name": "role",
          "type": "bytes32"
        }
      ],
      "name": "getRoleAdmin",
      "outputs": [
        {
          "internalType": "bytes32",
          "name": "",
          "type": "bytes32"
        }
      ],
      "stateMutability": "view",
      "type": "function"
    },
    {
      "inputs": [
        {
          "internalType": "bytes32",
          "name": "role",
          "type": "bytes32"
        },
        {
          "internalType": "uint256",
          "name": "index",
          "type": "uint256"
        }
      ],
      "name": "getRoleMember",
      "outputs": [
        {
          "internalType": "address",
          "name": "",
          "type": "address"
        }
      ],
      "stateMutability": "view",
      "type": "function"
    },
    {
      "inputs": [
        {
          "internalType": "bytes32",
          "name": "role",
          "type": "bytes32"
        }
      ],
      "name": "getRoleMemberCount",
      "outputs": [
        {
          "internalType": "uint256",
          "name": "",
          "type": "uint256"
        }
      ],
      "stateMutability": "view",
      "type": "function"
    },
    {
      "inputs": [
        {
          "internalType": "bytes32",
          "name": "role",
          "type": "bytes32"
        },
        {
          "internalType": "address",
          "name": "account",
          "type": "address"
        }
      ],
      "name": "grantRole",
      "outputs": [],
      "stateMutability": "nonpayable",
      "type": "function"
    },
    {
      "inputs": [
        {
          "internalType": "bytes32",
          "name": "role",
          "type": "bytes32"
        },
        {
          "internalType": "address",
          "name": "account",
          "type": "address"
        }
      ],
      "name": "hasRole",
      "outputs": [
        {
          "internalType": "bool",
          "name": "",
          "type": "bool"
        }
      ],
      "stateMutability": "view",
      "type": "function"
    },
    {
      "inputs": [
        {
          "internalType": "string",
          "name": "uri",
          "type": "string"
        }
      ],
      "name": "initialize",
      "outputs": [],
      "stateMutability": "nonpayable",
      "type": "function"
    },
    {
      "inputs": [
        {
          "internalType": "address",
          "name": "account",
          "type": "address"
        },
        {
          "internalType": "address",
          "name": "operator",
          "type": "address"
        }
      ],
      "name": "isApprovedForAll",
      "outputs": [
        {
          "internalType": "bool",
          "name": "",
          "type": "bool"
        }
      ],
      "stateMutability": "view",
      "type": "function"
    },
    {
      "inputs": [
        {
          "internalType": "address",
          "name": "to",
          "type": "address"
        },
        {
          "internalType": "uint256",
          "name": "id",
          "type": "uint256"
        },
        {
          "internalType": "uint256",
          "name": "amount",
          "type": "uint256"
        },
        {
          "internalType": "bytes",
          "name": "data",
          "type": "bytes"
        }
      ],
      "name": "mint",
      "outputs": [],
      "stateMutability": "nonpayable",
      "type": "function"
    },
    {
      "inputs": [
        {
          "internalType": "address",
          "name": "to",
          "type": "address"
        },
        {
          "internalType": "uint256[]",
          "name": "ids",
          "type": "uint256[]"
        },
        {
          "internalType": "uint256[]",
          "name": "amounts",
          "type": "uint256[]"
        },
        {
          "internalType": "bytes",
          "name": "data",
          "type": "bytes"
        }
      ],
      "name": "mintBatch",
      "outputs": [],
      "stateMutability": "nonpayable",
      "type": "function"
    },
    {
      "inputs": [],
      "name": "pause",
      "outputs": [],
      "stateMutability": "nonpayable",
      "type": "function"
    },
    {
      "inputs": [],
      "name": "paused",
      "outputs": [
        {
          "internalType": "bool",
          "name": "",
          "type": "bool"
        }
      ],
      "stateMutability": "view",
      "type": "function"
    },
    {
      "inputs": [
        {
          "internalType": "bytes32",
          "name": "role",
          "type": "bytes32"
        },
        {
          "internalType": "address",
          "name": "account",
          "type": "address"
        }
      ],
      "name": "renounceRole",
      "outputs": [],
      "stateMutability": "nonpayable",
      "type": "function"
    },
    {
      "inputs": [
        {
          "internalType": "bytes32",
          "name": "role",
          "type": "bytes32"
        },
        {
          "internalType": "address",
          "name": "account",
          "type": "address"
        }
      ],
      "name": "revokeRole",
      "outputs": [],
      "stateMutability": "nonpayable",
      "type": "function"
    },
    {
      "inputs": [
        {
          "internalType": "address",
          "name": "from",
          "type": "address"
        },
        {
          "internalType": "address",
          "name": "to",
          "type": "address"
        },
        {
          "internalType": "uint256[]",
          "name": "ids",
          "type": "uint256[]"
        },
        {
          "internalType": "uint256[]",
          "name": "amounts",
          "type": "uint256[]"
        },
        {
          "internalType": "bytes",
          "name": "data",
          "type": "bytes"
        }
      ],
      "name": "safeBatchTransferFrom",
      "outputs": [],
      "stateMutability": "nonpayable",
      "type": "function"
    },
    {
      "inputs": [
        {
          "internalType": "address",
          "name": "from",
          "type": "address"
        },
        {
          "internalType": "address",
          "name": "to",
          "type": "address"
        },
        {
          "internalType": "uint256",
          "name": "id",
          "type": "uint256"
        },
        {
          "internalType": "uint256",
          "name": "amount",
          "type": "uint256"
        },
        {
          "internalType": "bytes",
          "name": "data",
          "type": "bytes"
        }
      ],
      "name": "safeTransferFrom",
      "outputs": [],
      "stateMutability": "nonpayable",
      "type": "function"
    },
    {
      "inputs": [
        {
          "internalType": "address",
          "name": "operator",
          "type": "address"
        },
        {
          "internalType": "bool",
          "name": "approved",
          "type": "bool"
        }
      ],
      "name": "setApprovalForAll",
      "outputs": [],
      "stateMutability": "nonpayable",
      "type": "function"
    },
    {
      "inputs": [
        {
          "internalType": "bytes4",
          "name": "interfaceId",
          "type": "bytes4"
        }
      ],
      "name": "supportsInterface",
      "outputs": [
        {
          "internalType": "bool",
          "name": "",
          "type": "bool"
        }
      ],
      "stateMutability": "view",
      "type": "function"
    },
    {
      "inputs": [],
      "name": "unpause",
      "outputs": [],
      "stateMutability": "nonpayable",
      "type": "function"
    },
    {
      "inputs": [
        {
          "internalType": "uint256",
          "name": "",
          "type": "uint256"
        }
      ],
      "name": "uri",
      "outputs": [
        {
          "internalType": "string",
          "name": "",
          "type": "string"
        }
      ],
      "stateMutability": "view",
      "type": "function"
    }
  ],
  "bytecode": "0x608060405234801561001057600080fd5b50612e74806100206000396000f3fe608060405234801561001057600080fd5b506004361061018d5760003560e01c80638456cb59116100de578063d539139311610097578063e985e9c511610071578063e985e9c514610373578063f242432a146103af578063f5298aca146103c2578063f62d1888146103d55761018d565b8063d539139314610336578063d547741f1461034b578063e63ab1e91461035e5761018d565b80638456cb59146102c25780639010d07c146102ca57806391d14854146102f5578063a217fddf14610308578063a22cb46514610310578063ca15c873146103235761018d565b80632f2ff15d1161014b5780634e1273f4116101255780634e1273f4146102745780635c975abb146102945780636b20c4541461029c578063731133e9146102af5761018d565b80632f2ff15d1461024657806336568abe146102595780633f4ba83a1461026c5761018d565b8062fdd58e1461019257806301ffc9a7146101b85780630e89341c146101db5780631f7fdffa146101fb578063248a9ca3146102105780632eb2c2d614610233575b600080fd5b6101a56101a03660046124da565b6103e8565b6040519081526020015b60405180910390f35b6101cb6101c63660046126ac565b610484565b60405190151581526020016101af565b6101ee6101e9366004612651565b610497565b6040516101af91906128f0565b61020e61020936600461240c565b61052b565b005b6101a561021e366004612651565b60009081526065602052604090206001015490565b61020e610241366004612295565b610571565b61020e610254366004612669565b610608565b61020e610267366004612669565b610634565b61020e6106b2565b610287610282366004612587565b610746565b6040516101af91906128af565b6101cb6108a7565b61020e6102aa36600461239c565b6108b2565b61020e6102bd366004612535565b6108f5565b61020e610935565b6102dd6102d836600461268b565b6109c7565b6040516001600160a01b0390911681526020016101af565b6101cb610303366004612669565b6109e6565b6101a5600081565b61020e61031e3660046124a0565b610a11565b6101a5610331366004612651565b610a1c565b6101a5600080516020612e1f83398151915281565b61020e610359366004612669565b610a33565b6101a5600080516020612dff83398151915281565b6101cb610381366004612263565b6001600160a01b03918216600090815260ca6020908152604080832093909416825291909152205460ff1690565b61020e6103bd36600461233a565b610a59565b61020e6103d0366004612503565b610a9e565b61020e6103e33660046126e4565b610ae1565b60006001600160a01b0383166104595760405162461bcd60e51b815260206004820152602b60248201527f455243313135353a2062616c616e636520717565727920666f7220746865207a60448201526a65726f206164647265737360a81b60648201526084015b60405180910390fd5b50600081815260c9602090815260408083206001600160a01b03861684529091529020545b92915050565b600061048f82610b56565b90505b919050565b606060cb80546104a690612c92565b80601f01602080910402602001604051908101604052809291908181526020018280546104d290612c92565b801561051f5780601f106104f45761010080835404028352916020019161051f565b820191906000526020600020905b81548152906001019060200180831161050257829003601f168201915b50505050509050919050565b610543600080516020612e1f83398151915233610303565b61055f5760405162461bcd60e51b815260040161045090612aae565b61056b84848484610b96565b50505050565b6001600160a01b03851633148061058d575061058d8533610381565b6105f45760405162461bcd60e51b815260206004820152603260248201527f455243313135353a207472616e736665722063616c6c6572206973206e6f74206044820152711bdddb995c881b9bdc88185c1c1c9bdd995960721b6064820152608401610450565b6106018585858585610d0d565b5050505050565b60008281526065602052604090206001015461062581335b610ed6565b61062f8383610f3a565b505050565b6001600160a01b03811633146106a45760405162461bcd60e51b815260206004820152602f60248201527f416363657373436f6e74726f6c3a2063616e206f6e6c792072656e6f756e636560448201526e103937b632b9903337b91039b2b63360891b6064820152608401610450565b6106ae8282610f5c565b5050565b6106ca600080516020612dff83398151915233610303565b61073c5760405162461bcd60e51b815260206004820152603b60248201527f455243313135355072657365744d696e7465725061757365723a206d7573742060448201527f686176652070617573657220726f6c6520746f20756e706175736500000000006064820152608401610450565b610744610f7e565b565b606081518351146107ab5760405162461bcd60e51b815260206004820152602960248201527f455243313135353a206163636f756e747320616e6420696473206c656e677468604482015268040dad2e6dac2e8c6d60bb1b6064820152608401610450565b600083516001600160401b038111156107d457634e487b7160e01b600052604160045260246000fd5b6040519080825280602002602001820160405280156107fd578160200160208202803683370190505b50905060005b845181101561089f5761086485828151811061082f57634e487b7160e01b600052603260045260246000fd5b602002602001015185838151811061085757634e487b7160e01b600052603260045260246000fd5b60200260200101516103e8565b82828151811061088457634e487b7160e01b600052603260045260246000fd5b602090810291909101015261089881612cf9565b9050610803565b509392505050565b61012d5460ff165b90565b6001600160a01b0383163314806108ce57506108ce8333610381565b6108ea5760405162461bcd60e51b81526004016104509061298f565b61062f838383611014565b61090d600080516020612e1f83398151915233610303565b6109295760405162461bcd60e51b815260040161045090612aae565b61056b848484846111c1565b61094d600080516020612dff83398151915233610303565b6109bf5760405162461bcd60e51b815260206004820152603960248201527f455243313135355072657365744d696e7465725061757365723a206d7573742060448201527f686176652070617573657220726f6c6520746f207061757365000000000000006064820152608401610450565b610744611299565b60008281526097602052604081206109df9083611317565b9392505050565b60009182526065602090815260408084206001600160a01b0393909316845291905290205460ff1690565b6106ae338383611323565b600081815260976020526040812061048f90611404565b600082815260656020526040902060010154610a4f8133610620565b61062f8383610f5c565b6001600160a01b038516331480610a755750610a758533610381565b610a915760405162461bcd60e51b81526004016104509061298f565b610601858585858561140e565b6001600160a01b038316331480610aba5750610aba8333610381565b610ad65760405162461bcd60e51b81526004016104509061298f565b61062f83838361152f565b600054610100900460ff1680610afa575060005460ff16155b610b165760405162461bcd60e51b815260040161045090612a1d565b600054610100900460ff16158015610b38576000805461ffff19166101011790555b610b4182611634565b80156106ae576000805461ff00191690555050565b60006001600160e01b03198216636cdb3d1360e11b1480610b8757506001600160e01b031982166303a24d0760e21b145b8061048f575061048f826116d5565b6001600160a01b038416610bbc5760405162461bcd60e51b815260040161045090612b9d565b8151835114610bdd5760405162461bcd60e51b815260040161045090612b55565b33610bed816000878787876116fa565b60005b8451811015610ca557838181518110610c1957634e487b7160e01b600052603260045260246000fd5b602002602001015160c96000878481518110610c4557634e487b7160e01b600052603260045260246000fd5b602002602001015181526020019081526020016000206000886001600160a01b03166001600160a01b031681526020019081526020016000206000828254610c8d9190612c01565b90915550819050610c9d81612cf9565b915050610bf0565b50846001600160a01b031660006001600160a01b0316826001600160a01b03167f4a39dc06d4c0dbc64b70af90fd698a233a518aa5d07e595d983b8c0526c8f7fb8787604051610cf69291906128c2565b60405180910390a461060181600087878787611708565b8151835114610d2e5760405162461bcd60e51b815260040161045090612b55565b6001600160a01b038416610d545760405162461bcd60e51b8152600401610450906129d8565b33610d638187878787876116fa565b60005b8451811015610e68576000858281518110610d9157634e487b7160e01b600052603260045260246000fd5b602002602001015190506000858381518110610dbd57634e487b7160e01b600052603260045260246000fd5b602090810291909101810151600084815260c9835260408082206001600160a01b038e168352909352919091205490915081811015610e0e5760405162461bcd60e51b815260040161045090612b0b565b600083815260c9602090815260408083206001600160a01b038e8116855292528083208585039055908b16825281208054849290610e4d908490612c01565b9250508190555050505080610e6190612cf9565b9050610d66565b50846001600160a01b0316866001600160a01b0316826001600160a01b03167f4a39dc06d4c0dbc64b70af90fd698a233a518aa5d07e595d983b8c0526c8f7fb8787604051610eb89291906128c2565b60405180910390a4610ece818787878787611708565b505050505050565b610ee082826109e6565b6106ae57610ef8816001600160a01b03166014611873565b610f03836020611873565b604051602001610f14929190612797565b60408051601f198184030181529082905262461bcd60e51b8252610450916004016128f0565b610f448282611a54565b600082815260976020526040902061062f9082611ada565b610f668282611aef565b600082815260976020526040902061062f9082611b56565b610f866108a7565b610fc95760405162461bcd60e51b815260206004820152601460248201527314185d5cd8589b194e881b9bdd081c185d5cd95960621b6044820152606401610450565b61012d805460ff191690557f5db9ee0a495bf2e6ff9c91a7834c1ba4fdd244a5e8aa4e537bd38aeae4b073aa335b6040516001600160a01b03909116815260200160405180910390a1565b6001600160a01b03831661103a5760405162461bcd60e51b815260040161045090612a6b565b805182511461105b5760405162461bcd60e51b815260040161045090612b55565b600033905061107e818560008686604051806020016040528060008152506116fa565b60005b83518110156111625760008482815181106110ac57634e487b7160e01b600052603260045260246000fd5b6020026020010151905060008483815181106110d857634e487b7160e01b600052603260045260246000fd5b602090810291909101810151600084815260c9835260408082206001600160a01b038c1683529093529190912054909150818110156111295760405162461bcd60e51b81526004016104509061294b565b600092835260c9602090815260408085206001600160a01b038b168652909152909220910390558061115a81612cf9565b915050611081565b5060006001600160a01b0316846001600160a01b0316826001600160a01b03167f4a39dc06d4c0dbc64b70af90fd698a233a518aa5d07e595d983b8c0526c8f7fb86866040516111b39291906128c2565b60405180910390a450505050565b6001600160a01b0384166111e75760405162461bcd60e51b815260040161045090612b9d565b33611207816000876111f888611b6b565b61120188611b6b565b876116fa565b600084815260c9602090815260408083206001600160a01b038916845290915281208054859290611239908490612c01565b909155505060408051858152602081018590526001600160a01b0380881692600092918516917fc3d58168c5ae7397731d063d5bbf3d657854427343f4c083240f7aacaa2d0f62910160405180910390a461060181600087878787611bc4565b6112a16108a7565b156112e15760405162461bcd60e51b815260206004820152601060248201526f14185d5cd8589b194e881c185d5cd95960821b6044820152606401610450565b61012d805460ff191660011790557f62e78cea01bee320cd4e420270b5ea74000d11b0c9f74754ebdbfc544b05a258610ff73390565b60006109df8383611c8e565b816001600160a01b0316836001600160a01b031614156113975760405162461bcd60e51b815260206004820152602960248201527f455243313135353a2073657474696e6720617070726f76616c20737461747573604482015268103337b91039b2b63360b91b6064820152608401610450565b6001600160a01b03838116600081815260ca6020908152604080832094871680845294825291829020805460ff191686151590811790915591519182527f17307eab39ab6107e8899845ad3d59bd9653f200f220920489ca2b5937696c31910160405180910390a3505050565b600061048f825490565b6001600160a01b0384166114345760405162461bcd60e51b8152600401610450906129d8565b336114448187876111f888611b6b565b600084815260c9602090815260408083206001600160a01b038a168452909152902054838110156114875760405162461bcd60e51b815260040161045090612b0b565b600085815260c9602090815260408083206001600160a01b038b81168552925280832087850390559088168252812080548692906114c6908490612c01565b909155505060408051868152602081018690526001600160a01b03808916928a821692918616917fc3d58168c5ae7397731d063d5bbf3d657854427343f4c083240f7aacaa2d0f62910160405180910390a4611526828888888888611bc4565b50505050505050565b6001600160a01b0383166115555760405162461bcd60e51b815260040161045090612a6b565b336115848185600061156687611b6b565b61156f87611b6b565b604051806020016040528060008152506116fa565b600083815260c9602090815260408083206001600160a01b0388168452909152902054828110156115c75760405162461bcd60e51b81526004016104509061294b565b600084815260c9602090815260408083206001600160a01b03898116808652918452828520888703905582518981529384018890529092908616917fc3d58168c5ae7397731d063d5bbf3d657854427343f4c083240f7aacaa2d0f62910160405180910390a45050505050565b600054610100900460ff168061164d575060005460ff16155b6116695760405162461bcd60e51b815260040161045090612a1d565b600054610100900460ff1615801561168b576000805461ffff19166101011790555b611693611cc6565b61169b611cc6565b6116a3611cc6565b6116ab611cc6565b6116b482611d32565b6116bc611cc6565b6116c4611d92565b6116cc611cc6565b610b4182611e08565b60006001600160e01b03198216635a05180f60e01b148061048f575061048f82611e9b565b610ece868686868686611ed0565b6001600160a01b0384163b15610ece5760405163bc197c8160e01b81526001600160a01b0385169063bc197c819061174c908990899088908890889060040161280c565b602060405180830381600087803b15801561176657600080fd5b505af1925050508015611796575060408051601f3d908101601f19168201909252611793918101906126c8565b60015b611843576117a2612d40565b806308c379a014156117dc57506117b7612d57565b806117c257506117de565b8060405162461bcd60e51b815260040161045091906128f0565b505b60405162461bcd60e51b815260206004820152603460248201527f455243313135353a207472616e7366657220746f206e6f6e20455243313135356044820152732932b1b2b4bb32b91034b6b83632b6b2b73a32b960611b6064820152608401610450565b6001600160e01b0319811663bc197c8160e01b146115265760405162461bcd60e51b815260040161045090612903565b60606000611882836002612c19565b61188d906002612c01565b6001600160401b038111156118b257634e487b7160e01b600052604160045260246000fd5b6040519080825280601f01601f1916602001820160405280156118dc576020820181803683370190505b509050600360fc1b8160008151811061190557634e487b7160e01b600052603260045260246000fd5b60200101906001600160f81b031916908160001a905350600f60fb1b8160018151811061194257634e487b7160e01b600052603260045260246000fd5b60200101906001600160f81b031916908160001a9053506000611966846002612c19565b611971906001612c01565b90505b6001811115611a05576f181899199a1a9b1b9c1cb0b131b232b360811b85600f16601081106119b357634e487b7160e01b600052603260045260246000fd5b1a60f81b8282815181106119d757634e487b7160e01b600052603260045260246000fd5b60200101906001600160f81b031916908160001a90535060049490941c936119fe81612c7b565b9050611974565b5083156109df5760405162461bcd60e51b815260206004820181905260248201527f537472696e67733a20686578206c656e67746820696e73756666696369656e746044820152606401610450565b611a5e82826109e6565b6106ae5760008281526065602090815260408083206001600160a01b03851684529091529020805460ff19166001179055611a963390565b6001600160a01b0316816001600160a01b0316837f2f8788117e7eff1d82e926ec794901d17c78024a50270940304540a733656f0d60405160405180910390a45050565b60006109df836001600160a01b038416611f3a565b611af982826109e6565b156106ae5760008281526065602090815260408083206001600160a01b0385168085529252808320805460ff1916905551339285917ff6391f5c32d9c69d2a47ea670b442974b53935d1edc7fd64eb21e047a839171b9190a45050565b60006109df836001600160a01b038416611f89565b60408051600180825281830190925260609160009190602080830190803683370190505090508281600081518110611bb357634e487b7160e01b600052603260045260246000fd5b602090810291909101015292915050565b6001600160a01b0384163b15610ece5760405163f23a6e6160e01b81526001600160a01b0385169063f23a6e6190611c08908990899088908890889060040161286a565b602060405180830381600087803b158015611c2257600080fd5b505af1925050508015611c52575060408051601f3d908101601f19168201909252611c4f918101906126c8565b60015b611c5e576117a2612d40565b6001600160e01b0319811663f23a6e6160e01b146115265760405162461bcd60e51b815260040161045090612903565b6000826000018281548110611cb357634e487b7160e01b600052603260045260246000fd5b9060005260206000200154905092915050565b600054610100900460ff1680611cdf575060005460ff16155b611cfb5760405162461bcd60e51b815260040161045090612a1d565b600054610100900460ff16158015611d1d576000805461ffff19166101011790555b8015611d2f576000805461ff00191690555b50565b600054610100900460ff1680611d4b575060005460ff16155b611d675760405162461bcd60e51b815260040161045090612a1d565b600054610100900460ff16158015611d89576000805461ffff19166101011790555b610b41826120a6565b600054610100900460ff1680611dab575060005460ff16155b611dc75760405162461bcd60e51b815260040161045090612a1d565b600054610100900460ff16158015611de9576000805461ffff19166101011790555b61012d805460ff191690558015611d2f576000805461ff001916905550565b600054610100900460ff1680611e21575060005460ff16155b611e3d5760405162461bcd60e51b815260040161045090612a1d565b600054610100900460ff16158015611e5f576000805461ffff19166101011790555b611e6b6000335b6120b9565b611e83600080516020612e1f83398151915233611e66565b610b41600080516020612dff83398151915233611e66565b60006001600160e01b03198216637965db0b60e01b148061048f57506301ffc9a760e01b6001600160e01b031983161461048f565b611ed86108a7565b15610ece5760405162461bcd60e51b815260206004820152602c60248201527f455243313135355061757361626c653a20746f6b656e207472616e736665722060448201526b1dda1a5b19481c185d5cd95960a21b6064820152608401610450565b6000818152600183016020526040812054611f815750815460018181018455600084815260208082209093018490558454848252828601909352604090209190915561047e565b50600061047e565b6000818152600183016020526040812054801561209c576000611fad600183612c38565b8554909150600090611fc190600190612c38565b9050818114612042576000866000018281548110611fef57634e487b7160e01b600052603260045260246000fd5b906000526020600020015490508087600001848154811061202057634e487b7160e01b600052603260045260246000fd5b6000918252602080832090910192909255918252600188019052604090208390555b855486908061206157634e487b7160e01b600052603160045260246000fd5b60019003818190600052602060002001600090559055856001016000868152602001908152602001600020600090556001935050505061047e565b600091505061047e565b80516106ae9060cb9060208401906120c3565b6106ae8282610f3a565b8280546120cf90612c92565b90600052602060002090601f0160209004810192826120f15760008555612137565b82601f1061210a57805160ff1916838001178555612137565b82800160010185558215612137579182015b8281111561213757825182559160200191906001019061211c565b50612143929150612147565b5090565b5b808211156121435760008155600101612148565b60006001600160401b0383111561217557612175612d2a565b60405161218c601f8501601f191660200182612ccd565b8091508381528484840111156121a157600080fd5b83836020830137600060208583010152509392505050565b80356001600160a01b038116811461049257600080fd5b600082601f8301126121e0578081fd5b813560206121ed82612bde565b6040516121fa8282612ccd565b8381528281019150858301600585901b87018401881015612219578586fd5b855b858110156122375781358452928401929084019060010161221b565b5090979650505050505050565b600082601f830112612254578081fd5b6109df8383356020850161215c565b60008060408385031215612275578182fd5b61227e836121b9565b915061228c602084016121b9565b90509250929050565b600080600080600060a086880312156122ac578081fd5b6122b5866121b9565b94506122c3602087016121b9565b935060408601356001600160401b03808211156122de578283fd5b6122ea89838a016121d0565b945060608801359150808211156122ff578283fd5b61230b89838a016121d0565b93506080880135915080821115612320578283fd5b5061232d88828901612244565b9150509295509295909350565b600080600080600060a08688031215612351578081fd5b61235a866121b9565b9450612368602087016121b9565b9350604086013592506060860135915060808601356001600160401b03811115612390578182fd5b61232d88828901612244565b6000806000606084860312156123b0578283fd5b6123b9846121b9565b925060208401356001600160401b03808211156123d4578384fd5b6123e0878388016121d0565b935060408601359150808211156123f5578283fd5b50612402868287016121d0565b9150509250925092565b60008060008060808587031215612421578384fd5b61242a856121b9565b935060208501356001600160401b0380821115612445578485fd5b612451888389016121d0565b94506040870135915080821115612466578384fd5b612472888389016121d0565b93506060870135915080821115612487578283fd5b5061249487828801612244565b91505092959194509250565b600080604083850312156124b2578182fd5b6124bb836121b9565b9150602083013580151581146124cf578182fd5b809150509250929050565b600080604083850312156124ec578182fd5b6124f5836121b9565b946020939093013593505050565b600080600060608486031215612517578081fd5b612520846121b9565b95602085013595506040909401359392505050565b6000806000806080858703121561254a578182fd5b612553856121b9565b9350602085013592506040850135915060608501356001600160401b0381111561257b578182fd5b61249487828801612244565b60008060408385031215612599578182fd5b82356001600160401b03808211156125af578384fd5b818501915085601f8301126125c2578384fd5b813560206125cf82612bde565b6040516125dc8282612ccd565b8381528281019150858301600585901b870184018b10156125fb578889fd5b8896505b8487101561262457612610816121b9565b8352600196909601959183019183016125ff565b509650508601359250508082111561263a578283fd5b50612647858286016121d0565b9150509250929050565b600060208284031215612662578081fd5b5035919050565b6000806040838503121561267b578182fd5b8235915061228c602084016121b9565b6000806040838503121561269d578182fd5b50508035926020909101359150565b6000602082840312156126bd578081fd5b81356109df81612de8565b6000602082840312156126d9578081fd5b81516109df81612de8565b6000602082840312156126f5578081fd5b81356001600160401b0381111561270a578182fd5b8201601f8101841361271a578182fd5b6127298482356020840161215c565b949350505050565b6000815180845260208085019450808401835b8381101561276057815187529582019590820190600101612744565b509495945050505050565b60008151808452612783816020860160208601612c4f565b601f01601f19169290920160200192915050565b60007f416363657373436f6e74726f6c3a206163636f756e7420000000000000000000825283516127cf816017850160208801612c4f565b7001034b99036b4b9b9b4b733903937b6329607d1b6017918401918201528351612800816028840160208801612c4f565b01602801949350505050565b6001600160a01b0386811682528516602082015260a06040820181905260009061283890830186612731565b828103606084015261284a8186612731565b9050828103608084015261285e818561276b565b98975050505050505050565b6001600160a01b03868116825285166020820152604081018490526060810183905260a0608082018190526000906128a49083018461276b565b979650505050505050565b6000602082526109df6020830184612731565b6000604082526128d56040830185612731565b82810360208401526128e78185612731565b95945050505050565b6000602082526109df602083018461276b565b60208082526028908201527f455243313135353a204552433131353552656365697665722072656a656374656040820152676420746f6b656e7360c01b606082015260800190565b60208082526024908201527f455243313135353a206275726e20616d6f756e7420657863656564732062616c604082015263616e636560e01b606082015260800190565b60208082526029908201527f455243313135353a2063616c6c6572206973206e6f74206f776e6572206e6f7260408201526808185c1c1c9bdd995960ba1b606082015260800190565b60208082526025908201527f455243313135353a207472616e7366657220746f20746865207a65726f206164604082015264647265737360d81b606082015260800190565b6020808252602e908201527f496e697469616c697a61626c653a20636f6e747261637420697320616c72656160408201526d191e481a5b9a5d1a585b1a5e995960921b606082015260800190565b60208082526023908201527f455243313135353a206275726e2066726f6d20746865207a65726f206164647260408201526265737360e81b606082015260800190565b60208082526038908201527f455243313135355072657365744d696e7465725061757365723a206d7573742060408201527f68617665206d696e74657220726f6c6520746f206d696e740000000000000000606082015260800190565b6020808252602a908201527f455243313135353a20696e73756666696369656e742062616c616e636520666f60408201526939103a3930b739b332b960b11b606082015260800190565b60208082526028908201527f455243313135353a2069647320616e6420616d6f756e7473206c656e677468206040820152670dad2e6dac2e8c6d60c31b606082015260800190565b60208082526021908201527f455243313135353a206d696e7420746f20746865207a65726f206164647265736040820152607360f81b606082015260800190565b60006001600160401b03821115612bf757612bf7612d2a565b5060051b60200190565b60008219821115612c1457612c14612d14565b500190565b6000816000190483118215151615612c3357612c33612d14565b500290565b600082821015612c4a57612c4a612d14565b500390565b60005b83811015612c6a578181015183820152602001612c52565b8381111561056b5750506000910152565b600081612c8a57612c8a612d14565b506000190190565b600181811c90821680612ca657607f821691505b60208210811415612cc757634e487b7160e01b600052602260045260246000fd5b50919050565b601f8201601f191681016001600160401b0381118282101715612cf257612cf2612d2a565b6040525050565b6000600019821415612d0d57612d0d612d14565b5060010190565b634e487b7160e01b600052601160045260246000fd5b634e487b7160e01b600052604160045260246000fd5b600060033d11156108af57600481823e5160e01c90565b600060443d1015612d67576108af565b6040516003193d81016004833e81513d6001600160401b038160248401118184111715612d985750505050506108af565b8285019150815181811115612db2575050505050506108af565b843d8701016020828501011115612dce575050505050506108af565b612ddd60208286010187612ccd565b509094505050505090565b6001600160e01b031981168114611d2f57600080fdfe65d7a28e3265b37a6474929f336521b332c1681b933f6cb9f3376673440d862a9f2df0fed2c77648de5860a4cc508cd0818c85b8b8a1ab4ceeef8d981c8956a6a2646970667358221220430201b1b88ee0bc509d0c5cc9f0f0be3d570126b510b87050c47a3ca7c3429364736f6c63430008030033",
  "linkReferences": {},
  "deployedLinkReferences": {}
}