{
  "_format": "hh-sol-artifact-1",
  "contractName": "ERC20PresetMinterPauserUpgradeable",
  "sourceName": "contracts/token/ERC20/presets/ERC20PresetMinterPauserUpgradeable.sol",
  "abi": [
    {
      "anonymous": false,
      "inputs": [
        {
          "indexed": true,
          "internalType": "address",
          "name": "owner",
          "type": "address"
        },
        {
          "indexed": true,
          "internalType": "address",
          "name": "spender",
          "type": "address"
        },
        {
          "indexed": false,
          "internalType": "uint256",
          "name": "value",
          "type": "uint256"
        }
      ],
      "name": "Approval",
      "type": "event"
    },
    {
      "anonymous": false,
      "inputs": [
        {
          "indexed": false,
          "internalType": "address",
          "name": "account",
          "type": "address"
        }
      ],
      "name": "Paused",
      "type": "event"
    },
    {
      "anonymous": false,
      "inputs": [
        {
          "indexed": true,
          "internalType": "bytes32",
          "name": "role",
          "type": "bytes32"
        },
        {
          "indexed": true,
          "internalType": "bytes32",
          "name": "previousAdminRole",
          "type": "bytes32"
        },
        {
          "indexed": true,
          "internalType": "bytes32",
          "name": "newAdminRole",
          "type": "bytes32"
        }
      ],
      "name": "RoleAdminChanged",
      "type": "event"
    },
    {
      "anonymous": false,
      "inputs": [
        {
          "indexed": true,
          "internalType": "bytes32",
          "name": "role",
          "type": "bytes32"
        },
        {
          "indexed": true,
          "internalType": "address",
          "name": "account",
          "type": "address"
        },
        {
          "indexed": true,
          "internalType": "address",
          "name": "sender",
          "type": "address"
        }
      ],
      "name": "RoleGranted",
      "type": "event"
    },
    {
      "anonymous": false,
      "inputs": [
        {
          "indexed": true,
          "internalType": "bytes32",
          "name": "role",
          "type": "bytes32"
        },
        {
          "indexed": true,
          "internalType": "address",
          "name": "account",
          "type": "address"
        },
        {
          "indexed": true,
          "internalType": "address",
          "name": "sender",
          "type": "address"
        }
      ],
      "name": "RoleRevoked",
      "type": "event"
    },
    {
      "anonymous": false,
      "inputs": [
        {
          "indexed": true,
          "internalType": "address",
          "name": "from",
          "type": "address"
        },
        {
          "indexed": true,
          "internalType": "address",
          "name": "to",
          "type": "address"
        },
        {
          "indexed": false,
          "internalType": "uint256",
          "name": "value",
          "type": "uint256"
        }
      ],
      "name": "Transfer",
      "type": "event"
    },
    {
      "anonymous": false,
      "inputs": [
        {
          "indexed": false,
          "internalType": "address",
          "name": "account",
          "type": "address"
        }
      ],
      "name": "Unpaused",
      "type": "event"
    },
    {
      "inputs": [],
      "name": "DEFAULT_ADMIN_ROLE",
      "outputs": [
        {
          "internalType": "bytes32",
          "name": "",
          "type": "bytes32"
        }
      ],
      "stateMutability": "view",
      "type": "function"
    },
    {
      "inputs": [],
      "name": "MINTER_ROLE",
      "outputs": [
        {
          "internalType": "bytes32",
          "name": "",
          "type": "bytes32"
        }
      ],
      "stateMutability": "view",
      "type": "function"
    },
    {
      "inputs": [],
      "name": "PAUSER_ROLE",
      "outputs": [
        {
          "internalType": "bytes32",
          "name": "",
          "type": "bytes32"
        }
      ],
      "stateMutability": "view",
      "type": "function"
    },
    {
      "inputs": [
        {
          "internalType": "address",
          "name": "owner",
          "type": "address"
        },
        {
          "internalType": "address",
          "name": "spender",
          "type": "address"
        }
      ],
      "name": "allowance",
      "outputs": [
        {
          "internalType": "uint256",
          "name": "",
          "type": "uint256"
        }
      ],
      "stateMutability": "view",
      "type": "function"
    },
    {
      "inputs": [
        {
          "internalType": "address",
          "name": "spender",
          "type": "address"
        },
        {
          "internalType": "uint256",
          "name": "amount",
          "type": "uint256"
        }
      ],
      "name": "approve",
      "outputs": [
        {
          "internalType": "bool",
          "name": "",
          "type": "bool"
        }
      ],
      "stateMutability": "nonpayable",
      "type": "function"
    },
    {
      "inputs": [
        {
          "internalType": "address",
          "name": "account",
          "type": "address"
        }
      ],
      "name": "balanceOf",
      "outputs": [
        {
          "internalType": "uint256",
          "name": "",
          "type": "uint256"
        }
      ],
      "stateMutability": "view",
      "type": "function"
    },
    {
      "inputs": [
        {
          "internalType": "uint256",
          "name": "amount",
          "type": "uint256"
        }
      ],
      "name": "burn",
      "outputs": [],
      "stateMutability": "nonpayable",
      "type": "function"
    },
    {
      "inputs": [
        {
          "internalType": "address",
          "name": "account",
          "type": "address"
        },
        {
          "internalType": "uint256",
          "name": "amount",
          "type": "uint256"
        }
      ],
      "name": "burnFrom",
      "outputs": [],
      "stateMutability": "nonpayable",
      "type": "function"
    },
    {
      "inputs": [],
      "name": "decimals",
      "outputs": [
        {
          "internalType": "uint8",
          "name": "",
          "type": "uint8"
        }
      ],
      "stateMutability": "view",
      "type": "function"
    },
    {
      "inputs": [
        {
          "internalType": "address",
          "name": "spender",
          "type": "address"
        },
        {
          "internalType": "uint256",
          "name": "subtractedValue",
          "type": "uint256"
        }
      ],
      "name": "decreaseAllowance",
      "outputs": [
        {
          "internalType": "bool",
          "name": "",
          "type": "bool"
        }
      ],
      "stateMutability": "nonpayable",
      "type": "function"
    },
    {
      "inputs": [
        {
          "internalType": "bytes32",
          "name": "role",
          "type": "bytes32"
        }
      ],
      "name": "getRoleAdmin",
      "outputs": [
        {
          "internalType": "bytes32",
          "name": "",
          "type": "bytes32"
        }
      ],
      "stateMutability": "view",
      "type": "function"
    },
    {
      "inputs": [
        {
          "internalType": "bytes32",
          "name": "role",
          "type": "bytes32"
        },
        {
          "internalType": "uint256",
          "name": "index",
          "type": "uint256"
        }
      ],
      "name": "getRoleMember",
      "outputs": [
        {
          "internalType": "address",
          "name": "",
          "type": "address"
        }
      ],
      "stateMutability": "view",
      "type": "function"
    },
    {
      "inputs": [
        {
          "internalType": "bytes32",
          "name": "role",
          "type": "bytes32"
        }
      ],
      "name": "getRoleMemberCount",
      "outputs": [
        {
          "internalType": "uint256",
          "name": "",
          "type": "uint256"
        }
      ],
      "stateMutability": "view",
      "type": "function"
    },
    {
      "inputs": [
        {
          "internalType": "bytes32",
          "name": "role",
          "type": "bytes32"
        },
        {
          "internalType": "address",
          "name": "account",
          "type": "address"
        }
      ],
      "name": "grantRole",
      "outputs": [],
      "stateMutability": "nonpayable",
      "type": "function"
    },
    {
      "inputs": [
        {
          "internalType": "bytes32",
          "name": "role",
          "type": "bytes32"
        },
        {
          "internalType": "address",
          "name": "account",
          "type": "address"
        }
      ],
      "name": "hasRole",
      "outputs": [
        {
          "internalType": "bool",
          "name": "",
          "type": "bool"
        }
      ],
      "stateMutability": "view",
      "type": "function"
    },
    {
      "inputs": [
        {
          "internalType": "address",
          "name": "spender",
          "type": "address"
        },
        {
          "internalType": "uint256",
          "name": "addedValue",
          "type": "uint256"
        }
      ],
      "name": "increaseAllowance",
      "outputs": [
        {
          "internalType": "bool",
          "name": "",
          "type": "bool"
        }
      ],
      "stateMutability": "nonpayable",
      "type": "function"
    },
    {
      "inputs": [
        {
          "internalType": "string",
          "name": "name",
          "type": "string"
        },
        {
          "internalType": "string",
          "name": "symbol",
          "type": "string"
        }
      ],
      "name": "initialize",
      "outputs": [],
      "stateMutability": "nonpayable",
      "type": "function"
    },
    {
      "inputs": [
        {
          "internalType": "address",
          "name": "to",
          "type": "address"
        },
        {
          "internalType": "uint256",
          "name": "amount",
          "type": "uint256"
        }
      ],
      "name": "mint",
      "outputs": [],
      "stateMutability": "nonpayable",
      "type": "function"
    },
    {
      "inputs": [],
      "name": "name",
      "outputs": [
        {
          "internalType": "string",
          "name": "",
          "type": "string"
        }
      ],
      "stateMutability": "view",
      "type": "function"
    },
    {
      "inputs": [],
      "name": "pause",
      "outputs": [],
      "stateMutability": "nonpayable",
      "type": "function"
    },
    {
      "inputs": [],
      "name": "paused",
      "outputs": [
        {
          "internalType": "bool",
          "name": "",
          "type": "bool"
        }
      ],
      "stateMutability": "view",
      "type": "function"
    },
    {
      "inputs": [
        {
          "internalType": "bytes32",
          "name": "role",
          "type": "bytes32"
        },
        {
          "internalType": "address",
          "name": "account",
          "type": "address"
        }
      ],
      "name": "renounceRole",
      "outputs": [],
      "stateMutability": "nonpayable",
      "type": "function"
    },
    {
      "inputs": [
        {
          "internalType": "bytes32",
          "name": "role",
          "type": "bytes32"
        },
        {
          "internalType": "address",
          "name": "account",
          "type": "address"
        }
      ],
      "name": "revokeRole",
      "outputs": [],
      "stateMutability": "nonpayable",
      "type": "function"
    },
    {
      "inputs": [
        {
          "internalType": "bytes4",
          "name": "interfaceId",
          "type": "bytes4"
        }
      ],
      "name": "supportsInterface",
      "outputs": [
        {
          "internalType": "bool",
          "name": "",
          "type": "bool"
        }
      ],
      "stateMutability": "view",
      "type": "function"
    },
    {
      "inputs": [],
      "name": "symbol",
      "outputs": [
        {
          "internalType": "string",
          "name": "",
          "type": "string"
        }
      ],
      "stateMutability": "view",
      "type": "function"
    },
    {
      "inputs": [],
      "name": "totalSupply",
      "outputs": [
        {
          "internalType": "uint256",
          "name": "",
          "type": "uint256"
        }
      ],
      "stateMutability": "view",
      "type": "function"
    },
    {
      "inputs": [
        {
          "internalType": "address",
          "name": "recipient",
          "type": "address"
        },
        {
          "internalType": "uint256",
          "name": "amount",
          "type": "uint256"
        }
      ],
      "name": "transfer",
      "outputs": [
        {
          "internalType": "bool",
          "name": "",
          "type": "bool"
        }
      ],
      "stateMutability": "nonpayable",
      "type": "function"
    },
    {
      "inputs": [
        {
          "internalType": "address",
          "name": "sender",
          "type": "address"
        },
        {
          "internalType": "address",
          "name": "recipient",
          "type": "address"
        },
        {
          "internalType": "uint256",
          "name": "amount",
          "type": "uint256"
        }
      ],
      "name": "transferFrom",
      "outputs": [
        {
          "internalType": "bool",
          "name": "",
          "type": "bool"
        }
      ],
      "stateMutability": "nonpayable",
      "type": "function"
    },
    {
      "inputs": [],
      "name": "unpause",
      "outputs": [],
      "stateMutability": "nonpayable",
      "type": "function"
    }
  ],
  "bytecode": "0x608060405234801561001057600080fd5b50611ef7806100206000396000f3fe608060405234801561001057600080fd5b50600436106101cf5760003560e01c80635c975abb11610104578063a217fddf116100a2578063d539139311610071578063d5391393146103ce578063d547741f146103f5578063dd62ed3e14610408578063e63ab1e914610441576101cf565b8063a217fddf1461038d578063a457c2d714610395578063a9059cbb146103a8578063ca15c873146103bb576101cf565b80638456cb59116100de5780638456cb591461033f5780639010d07c1461034757806391d148541461037257806395d89b4114610385576101cf565b80635c975abb146102f757806370a082311461030357806379cc67901461032c576101cf565b8063313ce567116101715780633f4ba83a1161014b5780633f4ba83a146102b657806340c10f19146102be57806342966c68146102d15780634cd88b76146102e4576101cf565b8063313ce5671461028157806336568abe1461029057806339509351146102a3576101cf565b806318160ddd116101ad57806318160ddd1461022457806323b872dd14610236578063248a9ca3146102495780632f2ff15d1461026c576101cf565b806301ffc9a7146101d457806306fdde03146101fc578063095ea7b314610211575b600080fd5b6101e76101e2366004611c2a565b610456565b60405190151581526020015b60405180910390f35b610204610483565b6040516101f39190611d28565b6101e761021f366004611ba6565b610515565b60cb545b6040519081526020016101f3565b6101e7610244366004611b6b565b61052c565b610228610257366004611bcf565b60009081526065602052604090206001015490565b61027f61027a366004611be7565b6105db565b005b604051601281526020016101f3565b61027f61029e366004611be7565b610607565b6101e76102b1366004611ba6565b610685565b61027f6106c1565b61027f6102cc366004611ba6565b610755565b61027f6102df366004611bcf565b6107f4565b61027f6102f2366004611c52565b610801565b61012d5460ff166101e7565b610228610311366004611b1f565b6001600160a01b0316600090815260c9602052604090205490565b61027f61033a366004611ba6565b610878565b61027f6108f9565b61035a610355366004611c09565b61098b565b6040516001600160a01b0390911681526020016101f3565b6101e7610380366004611be7565b6109aa565b6102046109d5565b610228600081565b6101e76103a3366004611ba6565b6109e4565b6101e76103b6366004611ba6565b610a7d565b6102286103c9366004611bcf565b610a8a565b6102287f9f2df0fed2c77648de5860a4cc508cd0818c85b8b8a1ab4ceeef8d981c8956a681565b61027f610403366004611be7565b610aa1565b610228610416366004611b39565b6001600160a01b03918216600090815260ca6020908152604080832093909416825291909152205490565b610228600080516020611ea283398151915281565b60006001600160e01b03198216635a05180f60e01b148061047b575061047b82610ac7565b90505b919050565b606060cc805461049290611e3a565b80601f01602080910402602001604051908101604052809291908181526020018280546104be90611e3a565b801561050b5780601f106104e05761010080835404028352916020019161050b565b820191906000526020600020905b8154815290600101906020018083116104ee57829003601f168201915b5050505050905090565b6000610522338484610afc565b5060015b92915050565b6000610539848484610c20565b6001600160a01b038416600090815260ca60209081526040808320338452909152902054828110156105c35760405162461bcd60e51b815260206004820152602860248201527f45524332303a207472616e7366657220616d6f756e74206578636565647320616044820152676c6c6f77616e636560c01b60648201526084015b60405180910390fd5b6105d08533858403610afc565b506001949350505050565b6000828152606560205260409020600101546105f881335b610dfb565b6106028383610e5f565b505050565b6001600160a01b03811633146106775760405162461bcd60e51b815260206004820152602f60248201527f416363657373436f6e74726f6c3a2063616e206f6e6c792072656e6f756e636560448201526e103937b632b9903337b91039b2b63360891b60648201526084016105ba565b6106818282610e81565b5050565b33600081815260ca602090815260408083206001600160a01b038716845290915281205490916105229185906106bc908690611da9565b610afc565b6106d9600080516020611ea283398151915233610380565b61074b5760405162461bcd60e51b815260206004820152603960248201527f45524332305072657365744d696e7465725061757365723a206d75737420686160448201527f76652070617573657220726f6c6520746f20756e70617573650000000000000060648201526084016105ba565b610753610ea3565b565b61077f7f9f2df0fed2c77648de5860a4cc508cd0818c85b8b8a1ab4ceeef8d981c8956a633610380565b6107ea5760405162461bcd60e51b815260206004820152603660248201527f45524332305072657365744d696e7465725061757365723a206d7573742068616044820152751d99481b5a5b9d195c881c9bdb19481d1bc81b5a5b9d60521b60648201526084016105ba565b6106818282610f38565b6107fe3382611024565b50565b600054610100900460ff168061081a575060005460ff16155b6108365760405162461bcd60e51b81526004016105ba90611d5b565b600054610100900460ff16158015610858576000805461ffff19166101011790555b610862838361117e565b8015610602576000805461ff0019169055505050565b60006108848333610416565b9050818110156108e25760405162461bcd60e51b8152602060048201526024808201527f45524332303a206275726e20616d6f756e74206578636565647320616c6c6f77604482015263616e636560e01b60648201526084016105ba565b6108ef8333848403610afc565b6106028383611024565b610911600080516020611ea283398151915233610380565b6109835760405162461bcd60e51b815260206004820152603760248201527f45524332305072657365744d696e7465725061757365723a206d75737420686160448201527f76652070617573657220726f6c6520746f20706175736500000000000000000060648201526084016105ba565b610753611221565b60008281526097602052604081206109a3908361129e565b9392505050565b60009182526065602090815260408084206001600160a01b0393909316845291905290205460ff1690565b606060cd805461049290611e3a565b33600090815260ca602090815260408083206001600160a01b038616845290915281205482811015610a665760405162461bcd60e51b815260206004820152602560248201527f45524332303a2064656372656173656420616c6c6f77616e63652062656c6f77604482015264207a65726f60d81b60648201526084016105ba565b610a733385858403610afc565b5060019392505050565b6000610522338484610c20565b600081815260976020526040812061047b906112aa565b600082815260656020526040902060010154610abd81336105f3565b6106028383610e81565b60006001600160e01b03198216637965db0b60e01b148061047b57506301ffc9a760e01b6001600160e01b031983161461047b565b6001600160a01b038316610b5e5760405162461bcd60e51b8152602060048201526024808201527f45524332303a20617070726f76652066726f6d20746865207a65726f206164646044820152637265737360e01b60648201526084016105ba565b6001600160a01b038216610bbf5760405162461bcd60e51b815260206004820152602260248201527f45524332303a20617070726f766520746f20746865207a65726f206164647265604482015261737360f01b60648201526084016105ba565b6001600160a01b03838116600081815260ca602090815260408083209487168084529482529182902085905590518481527f8c5be1e5ebec7d5bd14f71427d1e84f3dd0314c0f7b2291e5b200ac8c7c3b925910160405180910390a3505050565b6001600160a01b038316610c845760405162461bcd60e51b815260206004820152602560248201527f45524332303a207472616e736665722066726f6d20746865207a65726f206164604482015264647265737360d81b60648201526084016105ba565b6001600160a01b038216610ce65760405162461bcd60e51b815260206004820152602360248201527f45524332303a207472616e7366657220746f20746865207a65726f206164647260448201526265737360e81b60648201526084016105ba565b610cf18383836112b4565b6001600160a01b038316600090815260c9602052604090205481811015610d695760405162461bcd60e51b815260206004820152602660248201527f45524332303a207472616e7366657220616d6f756e7420657863656564732062604482015265616c616e636560d01b60648201526084016105ba565b6001600160a01b03808516600090815260c96020526040808220858503905591851681529081208054849290610da0908490611da9565b92505081905550826001600160a01b0316846001600160a01b03167fddf252ad1be2c89b69c2b068fc378daa952ba7f163c4a11628f55a4df523b3ef84604051610dec91815260200190565b60405180910390a35b50505050565b610e0582826109aa565b61068157610e1d816001600160a01b031660146112bf565b610e288360206112bf565b604051602001610e39929190611cb3565b60408051601f198184030181529082905262461bcd60e51b82526105ba91600401611d28565b610e6982826114a1565b60008281526097602052604090206106029082611527565b610e8b828261153c565b600082815260976020526040902061060290826115a3565b61012d5460ff16610eed5760405162461bcd60e51b815260206004820152601460248201527314185d5cd8589b194e881b9bdd081c185d5cd95960621b60448201526064016105ba565b61012d805460ff191690557f5db9ee0a495bf2e6ff9c91a7834c1ba4fdd244a5e8aa4e537bd38aeae4b073aa335b6040516001600160a01b03909116815260200160405180910390a1565b6001600160a01b038216610f8e5760405162461bcd60e51b815260206004820152601f60248201527f45524332303a206d696e7420746f20746865207a65726f20616464726573730060448201526064016105ba565b610f9a600083836112b4565b8060cb6000828254610fac9190611da9565b90915550506001600160a01b038216600090815260c9602052604081208054839290610fd9908490611da9565b90915550506040518181526001600160a01b038316906000907fddf252ad1be2c89b69c2b068fc378daa952ba7f163c4a11628f55a4df523b3ef9060200160405180910390a3610681565b6001600160a01b0382166110845760405162461bcd60e51b815260206004820152602160248201527f45524332303a206275726e2066726f6d20746865207a65726f206164647265736044820152607360f81b60648201526084016105ba565b611090826000836112b4565b6001600160a01b038216600090815260c96020526040902054818110156111045760405162461bcd60e51b815260206004820152602260248201527f45524332303a206275726e20616d6f756e7420657863656564732062616c616e604482015261636560f01b60648201526084016105ba565b6001600160a01b038316600090815260c960205260408120838303905560cb8054849290611133908490611de0565b90915550506040518281526000906001600160a01b038516907fddf252ad1be2c89b69c2b068fc378daa952ba7f163c4a11628f55a4df523b3ef9060200160405180910390a3610602565b600054610100900460ff1680611197575060005460ff16155b6111b35760405162461bcd60e51b81526004016105ba90611d5b565b600054610100900460ff161580156111d5576000805461ffff19166101011790555b6111dd6115b8565b6111e56115b8565b6111ed6115b8565b6111f56115b8565b6111ff8383611623565b6112076115b8565b61120f6116b8565b6112176115b8565b610862838361172e565b61012d5460ff16156112685760405162461bcd60e51b815260206004820152601060248201526f14185d5cd8589b194e881c185d5cd95960821b60448201526064016105ba565b61012d805460ff191660011790557f62e78cea01bee320cd4e420270b5ea74000d11b0c9f74754ebdbfc544b05a258610f1b3390565b60006109a383836117d3565b600061047b825490565b61060283838361180b565b606060006112ce836002611dc1565b6112d9906002611da9565b67ffffffffffffffff8111156112ff57634e487b7160e01b600052604160045260246000fd5b6040519080825280601f01601f191660200182016040528015611329576020820181803683370190505b509050600360fc1b8160008151811061135257634e487b7160e01b600052603260045260246000fd5b60200101906001600160f81b031916908160001a905350600f60fb1b8160018151811061138f57634e487b7160e01b600052603260045260246000fd5b60200101906001600160f81b031916908160001a90535060006113b3846002611dc1565b6113be906001611da9565b90505b6001811115611452576f181899199a1a9b1b9c1cb0b131b232b360811b85600f166010811061140057634e487b7160e01b600052603260045260246000fd5b1a60f81b82828151811061142457634e487b7160e01b600052603260045260246000fd5b60200101906001600160f81b031916908160001a90535060049490941c9361144b81611e23565b90506113c1565b5083156109a35760405162461bcd60e51b815260206004820181905260248201527f537472696e67733a20686578206c656e67746820696e73756666696369656e7460448201526064016105ba565b6114ab82826109aa565b6106815760008281526065602090815260408083206001600160a01b03851684529091529020805460ff191660011790556114e33390565b6001600160a01b0316816001600160a01b0316837f2f8788117e7eff1d82e926ec794901d17c78024a50270940304540a733656f0d60405160405180910390a45050565b60006109a3836001600160a01b038416611872565b61154682826109aa565b156106815760008281526065602090815260408083206001600160a01b0385168085529252808320805460ff1916905551339285917ff6391f5c32d9c69d2a47ea670b442974b53935d1edc7fd64eb21e047a839171b9190a45050565b60006109a3836001600160a01b0384166118c1565b600054610100900460ff16806115d1575060005460ff16155b6115ed5760405162461bcd60e51b81526004016105ba90611d5b565b600054610100900460ff1615801561160f576000805461ffff19166101011790555b80156107fe576000805461ff001916905550565b600054610100900460ff168061163c575060005460ff16155b6116585760405162461bcd60e51b81526004016105ba90611d5b565b600054610100900460ff1615801561167a576000805461ffff19166101011790555b825161168d9060cc9060208601906119e8565b5081516116a19060cd9060208501906119e8565b508015610602576000805461ff0019169055505050565b600054610100900460ff16806116d1575060005460ff16155b6116ed5760405162461bcd60e51b81526004016105ba90611d5b565b600054610100900460ff1615801561170f576000805461ffff19166101011790555b61012d805460ff1916905580156107fe576000805461ff001916905550565b600054610100900460ff1680611747575060005460ff16155b6117635760405162461bcd60e51b81526004016105ba90611d5b565b600054610100900460ff16158015611785576000805461ffff19166101011790555b6117916000335b6119de565b6117bb7f9f2df0fed2c77648de5860a4cc508cd0818c85b8b8a1ab4ceeef8d981c8956a63361178c565b610862600080516020611ea28339815191523361178c565b60008260000182815481106117f857634e487b7160e01b600052603260045260246000fd5b9060005260206000200154905092915050565b61012d5460ff16156106025760405162461bcd60e51b815260206004820152602a60248201527f45524332305061757361626c653a20746f6b656e207472616e736665722077686044820152691a5b19481c185d5cd95960b21b60648201526084016105ba565b60008181526001830160205260408120546118b957508154600181810184556000848152602080822090930184905584548482528286019093526040902091909155610526565b506000610526565b600081815260018301602052604081205480156119d45760006118e5600183611de0565b85549091506000906118f990600190611de0565b905081811461197a57600086600001828154811061192757634e487b7160e01b600052603260045260246000fd5b906000526020600020015490508087600001848154811061195857634e487b7160e01b600052603260045260246000fd5b6000918252602080832090910192909255918252600188019052604090208390555b855486908061199957634e487b7160e01b600052603160045260246000fd5b600190038181906000526020600020016000905590558560010160008681526020019081526020016000206000905560019350505050610526565b6000915050610526565b6106818282610e5f565b8280546119f490611e3a565b90600052602060002090601f016020900481019282611a165760008555611a5c565b82601f10611a2f57805160ff1916838001178555611a5c565b82800160010185558215611a5c579182015b82811115611a5c578251825591602001919060010190611a41565b50611a68929150611a6c565b5090565b5b80821115611a685760008155600101611a6d565b80356001600160a01b038116811461047e57600080fd5b600082601f830112611aa8578081fd5b813567ffffffffffffffff80821115611ac357611ac3611e8b565b604051601f8301601f19908116603f01168101908282118183101715611aeb57611aeb611e8b565b81604052838152866020858801011115611b03578485fd5b8360208701602083013792830160200193909352509392505050565b600060208284031215611b30578081fd5b6109a382611a81565b60008060408385031215611b4b578081fd5b611b5483611a81565b9150611b6260208401611a81565b90509250929050565b600080600060608486031215611b7f578081fd5b611b8884611a81565b9250611b9660208501611a81565b9150604084013590509250925092565b60008060408385031215611bb8578182fd5b611bc183611a81565b946020939093013593505050565b600060208284031215611be0578081fd5b5035919050565b60008060408385031215611bf9578182fd5b82359150611b6260208401611a81565b60008060408385031215611c1b578182fd5b50508035926020909101359150565b600060208284031215611c3b578081fd5b81356001600160e01b0319811681146109a3578182fd5b60008060408385031215611c64578182fd5b823567ffffffffffffffff80821115611c7b578384fd5b611c8786838701611a98565b93506020850135915080821115611c9c578283fd5b50611ca985828601611a98565b9150509250929050565b60007f416363657373436f6e74726f6c3a206163636f756e742000000000000000000082528351611ceb816017850160208801611df7565b7001034b99036b4b9b9b4b733903937b6329607d1b6017918401918201528351611d1c816028840160208801611df7565b01602801949350505050565b6000602082528251806020840152611d47816040850160208701611df7565b601f01601f19169190910160400192915050565b6020808252602e908201527f496e697469616c697a61626c653a20636f6e747261637420697320616c72656160408201526d191e481a5b9a5d1a585b1a5e995960921b606082015260800190565b60008219821115611dbc57611dbc611e75565b500190565b6000816000190483118215151615611ddb57611ddb611e75565b500290565b600082821015611df257611df2611e75565b500390565b60005b83811015611e12578181015183820152602001611dfa565b83811115610df55750506000910152565b600081611e3257611e32611e75565b506000190190565b600181811c90821680611e4e57607f821691505b60208210811415611e6f57634e487b7160e01b600052602260045260246000fd5b50919050565b634e487b7160e01b600052601160045260246000fd5b634e487b7160e01b600052604160045260246000fdfe65d7a28e3265b37a6474929f336521b332c1681b933f6cb9f3376673440d862aa2646970667358221220a3816199cab117d19e0cffc0d4256cde21a496839726c6ae1a6d848a9aea7a2464736f6c63430008030033",
  "linkReferences": {},
  "deployedLinkReferences": {}
}