{
  "_format": "hh-sol-artifact-1",
  "contractName": "ERC721PresetMinterPauserAutoIdUpgradeable",
  "sourceName": "contracts/token/ERC721/presets/ERC721PresetMinterPauserAutoIdUpgradeable.sol",
  "abi": [
    {
      "anonymous": false,
      "inputs": [
        {
          "indexed": true,
          "internalType": "address",
          "name": "owner",
          "type": "address"
        },
        {
          "indexed": true,
          "internalType": "address",
          "name": "approved",
          "type": "address"
        },
        {
          "indexed": true,
          "internalType": "uint256",
          "name": "tokenId",
          "type": "uint256"
        }
      ],
      "name": "Approval",
      "type": "event"
    },
    {
      "anonymous": false,
      "inputs": [
        {
          "indexed": true,
          "internalType": "address",
          "name": "owner",
          "type": "address"
        },
        {
          "indexed": true,
          "internalType": "address",
          "name": "operator",
          "type": "address"
        },
        {
          "indexed": false,
          "internalType": "bool",
          "name": "approved",
          "type": "bool"
        }
      ],
      "name": "ApprovalForAll",
      "type": "event"
    },
    {
      "anonymous": false,
      "inputs": [
        {
          "indexed": false,
          "internalType": "address",
          "name": "account",
          "type": "address"
        }
      ],
      "name": "Paused",
      "type": "event"
    },
    {
      "anonymous": false,
      "inputs": [
        {
          "indexed": true,
          "internalType": "bytes32",
          "name": "role",
          "type": "bytes32"
        },
        {
          "indexed": true,
          "internalType": "bytes32",
          "name": "previousAdminRole",
          "type": "bytes32"
        },
        {
          "indexed": true,
          "internalType": "bytes32",
          "name": "newAdminRole",
          "type": "bytes32"
        }
      ],
      "name": "RoleAdminChanged",
      "type": "event"
    },
    {
      "anonymous": false,
      "inputs": [
        {
          "indexed": true,
          "internalType": "bytes32",
          "name": "role",
          "type": "bytes32"
        },
        {
          "indexed": true,
          "internalType": "address",
          "name": "account",
          "type": "address"
        },
        {
          "indexed": true,
          "internalType": "address",
          "name": "sender",
          "type": "address"
        }
      ],
      "name": "RoleGranted",
      "type": "event"
    },
    {
      "anonymous": false,
      "inputs": [
        {
          "indexed": true,
          "internalType": "bytes32",
          "name": "role",
          "type": "bytes32"
        },
        {
          "indexed": true,
          "internalType": "address",
          "name": "account",
          "type": "address"
        },
        {
          "indexed": true,
          "internalType": "address",
          "name": "sender",
          "type": "address"
        }
      ],
      "name": "RoleRevoked",
      "type": "event"
    },
    {
      "anonymous": false,
      "inputs": [
        {
          "indexed": true,
          "internalType": "address",
          "name": "from",
          "type": "address"
        },
        {
          "indexed": true,
          "internalType": "address",
          "name": "to",
          "type": "address"
        },
        {
          "indexed": true,
          "internalType": "uint256",
          "name": "tokenId",
          "type": "uint256"
        }
      ],
      "name": "Transfer",
      "type": "event"
    },
    {
      "anonymous": false,
      "inputs": [
        {
          "indexed": false,
          "internalType": "address",
          "name": "account",
          "type": "address"
        }
      ],
      "name": "Unpaused",
      "type": "event"
    },
    {
      "inputs": [],
      "name": "DEFAULT_ADMIN_ROLE",
      "outputs": [
        {
          "internalType": "bytes32",
          "name": "",
          "type": "bytes32"
        }
      ],
      "stateMutability": "view",
      "type": "function"
    },
    {
      "inputs": [],
      "name": "MINTER_ROLE",
      "outputs": [
        {
          "internalType": "bytes32",
          "name": "",
          "type": "bytes32"
        }
      ],
      "stateMutability": "view",
      "type": "function"
    },
    {
      "inputs": [],
      "name": "PAUSER_ROLE",
      "outputs": [
        {
          "internalType": "bytes32",
          "name": "",
          "type": "bytes32"
        }
      ],
      "stateMutability": "view",
      "type": "function"
    },
    {
      "inputs": [
        {
          "internalType": "address",
          "name": "to",
          "type": "address"
        },
        {
          "internalType": "uint256",
          "name": "tokenId",
          "type": "uint256"
        }
      ],
      "name": "approve",
      "outputs": [],
      "stateMutability": "nonpayable",
      "type": "function"
    },
    {
      "inputs": [
        {
          "internalType": "address",
          "name": "owner",
          "type": "address"
        }
      ],
      "name": "balanceOf",
      "outputs": [
        {
          "internalType": "uint256",
          "name": "",
          "type": "uint256"
        }
      ],
      "stateMutability": "view",
      "type": "function"
    },
    {
      "inputs": [
        {
          "internalType": "uint256",
          "name": "tokenId",
          "type": "uint256"
        }
      ],
      "name": "burn",
      "outputs": [],
      "stateMutability": "nonpayable",
      "type": "function"
    },
    {
      "inputs": [
        {
          "internalType": "uint256",
          "name": "tokenId",
          "type": "uint256"
        }
      ],
      "name": "getApproved",
      "outputs": [
        {
          "internalType": "address",
          "name": "",
          "type": "address"
        }
      ],
      "stateMutability": "view",
      "type": "function"
    },
    {
      "inputs": [
        {
          "internalType": "bytes32",
          "name": "role",
          "type": "bytes32"
        }
      ],
      "name": "getRoleAdmin",
      "outputs": [
        {
          "internalType": "bytes32",
          "name": "",
          "type": "bytes32"
        }
      ],
      "stateMutability": "view",
      "type": "function"
    },
    {
      "inputs": [
        {
          "internalType": "bytes32",
          "name": "role",
          "type": "bytes32"
        },
        {
          "internalType": "uint256",
          "name": "index",
          "type": "uint256"
        }
      ],
      "name": "getRoleMember",
      "outputs": [
        {
          "internalType": "address",
          "name": "",
          "type": "address"
        }
      ],
      "stateMutability": "view",
      "type": "function"
    },
    {
      "inputs": [
        {
          "internalType": "bytes32",
          "name": "role",
          "type": "bytes32"
        }
      ],
      "name": "getRoleMemberCount",
      "outputs": [
        {
          "internalType": "uint256",
          "name": "",
          "type": "uint256"
        }
      ],
      "stateMutability": "view",
      "type": "function"
    },
    {
      "inputs": [
        {
          "internalType": "bytes32",
          "name": "role",
          "type": "bytes32"
        },
        {
          "internalType": "address",
          "name": "account",
          "type": "address"
        }
      ],
      "name": "grantRole",
      "outputs": [],
      "stateMutability": "nonpayable",
      "type": "function"
    },
    {
      "inputs": [
        {
          "internalType": "bytes32",
          "name": "role",
          "type": "bytes32"
        },
        {
          "internalType": "address",
          "name": "account",
          "type": "address"
        }
      ],
      "name": "hasRole",
      "outputs": [
        {
          "internalType": "bool",
          "name": "",
          "type": "bool"
        }
      ],
      "stateMutability": "view",
      "type": "function"
    },
    {
      "inputs": [
        {
          "internalType": "string",
          "name": "name",
          "type": "string"
        },
        {
          "internalType": "string",
          "name": "symbol",
          "type": "string"
        },
        {
          "internalType": "string",
          "name": "baseTokenURI",
          "type": "string"
        }
      ],
      "name": "initialize",
      "outputs": [],
      "stateMutability": "nonpayable",
      "type": "function"
    },
    {
      "inputs": [
        {
          "internalType": "address",
          "name": "owner",
          "type": "address"
        },
        {
          "internalType": "address",
          "name": "operator",
          "type": "address"
        }
      ],
      "name": "isApprovedForAll",
      "outputs": [
        {
          "internalType": "bool",
          "name": "",
          "type": "bool"
        }
      ],
      "stateMutability": "view",
      "type": "function"
    },
    {
      "inputs": [
        {
          "internalType": "address",
          "name": "to",
          "type": "address"
        }
      ],
      "name": "mint",
      "outputs": [],
      "stateMutability": "nonpayable",
      "type": "function"
    },
    {
      "inputs": [],
      "name": "name",
      "outputs": [
        {
          "internalType": "string",
          "name": "",
          "type": "string"
        }
      ],
      "stateMutability": "view",
      "type": "function"
    },
    {
      "inputs": [
        {
          "internalType": "uint256",
          "name": "tokenId",
          "type": "uint256"
        }
      ],
      "name": "ownerOf",
      "outputs": [
        {
          "internalType": "address",
          "name": "",
          "type": "address"
        }
      ],
      "stateMutability": "view",
      "type": "function"
    },
    {
      "inputs": [],
      "name": "pause",
      "outputs": [],
      "stateMutability": "nonpayable",
      "type": "function"
    },
    {
      "inputs": [],
      "name": "paused",
      "outputs": [
        {
          "internalType": "bool",
          "name": "",
          "type": "bool"
        }
      ],
      "stateMutability": "view",
      "type": "function"
    },
    {
      "inputs": [
        {
          "internalType": "bytes32",
          "name": "role",
          "type": "bytes32"
        },
        {
          "internalType": "address",
          "name": "account",
          "type": "address"
        }
      ],
      "name": "renounceRole",
      "outputs": [],
      "stateMutability": "nonpayable",
      "type": "function"
    },
    {
      "inputs": [
        {
          "internalType": "bytes32",
          "name": "role",
          "type": "bytes32"
        },
        {
          "internalType": "address",
          "name": "account",
          "type": "address"
        }
      ],
      "name": "revokeRole",
      "outputs": [],
      "stateMutability": "nonpayable",
      "type": "function"
    },
    {
      "inputs": [
        {
          "internalType": "address",
          "name": "from",
          "type": "address"
        },
        {
          "internalType": "address",
          "name": "to",
          "type": "address"
        },
        {
          "internalType": "uint256",
          "name": "tokenId",
          "type": "uint256"
        }
      ],
      "name": "safeTransferFrom",
      "outputs": [],
      "stateMutability": "nonpayable",
      "type": "function"
    },
    {
      "inputs": [
        {
          "internalType": "address",
          "name": "from",
          "type": "address"
        },
        {
          "internalType": "address",
          "name": "to",
          "type": "address"
        },
        {
          "internalType": "uint256",
          "name": "tokenId",
          "type": "uint256"
        },
        {
          "internalType": "bytes",
          "name": "_data",
          "type": "bytes"
        }
      ],
      "name": "safeTransferFrom",
      "outputs": [],
      "stateMutability": "nonpayable",
      "type": "function"
    },
    {
      "inputs": [
        {
          "internalType": "address",
          "name": "operator",
          "type": "address"
        },
        {
          "internalType": "bool",
          "name": "approved",
          "type": "bool"
        }
      ],
      "name": "setApprovalForAll",
      "outputs": [],
      "stateMutability": "nonpayable",
      "type": "function"
    },
    {
      "inputs": [
        {
          "internalType": "bytes4",
          "name": "interfaceId",
          "type": "bytes4"
        }
      ],
      "name": "supportsInterface",
      "outputs": [
        {
          "internalType": "bool",
          "name": "",
          "type": "bool"
        }
      ],
      "stateMutability": "view",
      "type": "function"
    },
    {
      "inputs": [],
      "name": "symbol",
      "outputs": [
        {
          "internalType": "string",
          "name": "",
          "type": "string"
        }
      ],
      "stateMutability": "view",
      "type": "function"
    },
    {
      "inputs": [
        {
          "internalType": "uint256",
          "name": "index",
          "type": "uint256"
        }
      ],
      "name": "tokenByIndex",
      "outputs": [
        {
          "internalType": "uint256",
          "name": "",
          "type": "uint256"
        }
      ],
      "stateMutability": "view",
      "type": "function"
    },
    {
      "inputs": [
        {
          "internalType": "address",
          "name": "owner",
          "type": "address"
        },
        {
          "internalType": "uint256",
          "name": "index",
          "type": "uint256"
        }
      ],
      "name": "tokenOfOwnerByIndex",
      "outputs": [
        {
          "internalType": "uint256",
          "name": "",
          "type": "uint256"
        }
      ],
      "stateMutability": "view",
      "type": "function"
    },
    {
      "inputs": [
        {
          "internalType": "uint256",
          "name": "tokenId",
          "type": "uint256"
        }
      ],
      "name": "tokenURI",
      "outputs": [
        {
          "internalType": "string",
          "name": "",
          "type": "string"
        }
      ],
      "stateMutability": "view",
      "type": "function"
    },
    {
      "inputs": [],
      "name": "totalSupply",
      "outputs": [
        {
          "internalType": "uint256",
          "name": "",
          "type": "uint256"
        }
      ],
      "stateMutability": "view",
      "type": "function"
    },
    {
      "inputs": [
        {
          "internalType": "address",
          "name": "from",
          "type": "address"
        },
        {
          "internalType": "address",
          "name": "to",
          "type": "address"
        },
        {
          "internalType": "uint256",
          "name": "tokenId",
          "type": "uint256"
        }
      ],
      "name": "transferFrom",
      "outputs": [],
      "stateMutability": "nonpayable",
      "type": "function"
    },
    {
      "inputs": [],
      "name": "unpause",
      "outputs": [],
      "stateMutability": "nonpayable",
      "type": "function"
    }
  ],
  "bytecode": "0x608060405234801561001057600080fd5b50612b7a806100206000396000f3fe608060405234801561001057600080fd5b50600436106101f05760003560e01c80636a6278421161010f578063a6487c53116100a2578063d539139311610071578063d539139314610416578063d547741f1461043d578063e63ab1e914610450578063e985e9c514610465576101f0565b8063a6487c53146103ca578063b88d4fde146103dd578063c87b56dd146103f0578063ca15c87314610403576101f0565b806391d14854116100de57806391d148541461039457806395d89b41146103a7578063a217fddf146103af578063a22cb465146103b7576101f0565b80636a6278421461035357806370a08231146103665780638456cb59146103795780639010d07c14610381576101f0565b80632f745c591161018757806342966c681161015657806342966c681461030e5780634f6ccce7146103215780635c975abb146103345780636352211e14610340576101f0565b80632f745c59146102cd57806336568abe146102e05780633f4ba83a146102f357806342842e0e146102fb576101f0565b806318160ddd116101c357806318160ddd1461027257806323b872dd14610284578063248a9ca3146102975780632f2ff15d146102ba576101f0565b806301ffc9a7146101f557806306fdde031461021d578063081812fc14610232578063095ea7b31461025d575b600080fd5b6102086102033660046126f0565b6104a1565b60405190151581526020015b60405180910390f35b6102256104b4565b60405161021491906128b9565b610245610240366004612695565b610546565b6040516001600160a01b039091168152602001610214565b61027061026b36600461266c565b6105e0565b005b60fd545b604051908152602001610214565b61027061029236600461257e565b6106f6565b6102766102a5366004612695565b60009081526065602052604090206001015490565b6102706102c83660046126ad565b610728565b6102766102db36600461266c565b61074f565b6102706102ee3660046126ad565b6107e8565b610270610866565b61027061030936600461257e565b6108fc565b61027061031c366004612695565b610917565b61027661032f366004612695565b610991565b61015f5460ff16610208565b61024561034e366004612695565b610a32565b610270610361366004612532565b610aa9565b610276610374366004612532565b610b67565b610270610bee565b61024561038f3660046126cf565b610c80565b6102086103a23660046126ad565b610c9f565b610225610cca565b610276600081565b6102706103c5366004612632565b610cd9565b6102706103d8366004612728565b610ce4565b6102706103eb3660046125b9565b610d5e565b6102256103fe366004612695565b610d90565b610276610411366004612695565b610e6a565b6102767f9f2df0fed2c77648de5860a4cc508cd0818c85b8b8a1ab4ceeef8d981c8956a681565b61027061044b3660046126ad565b610e81565b610276600080516020612b2583398151915281565b61020861047336600461254c565b6001600160a01b03918216600090815260ce6020908152604080832093909416825291909152205460ff1690565b60006104ac82610ea7565b90505b919050565b606060c980546104c390612a62565b80601f01602080910402602001604051908101604052809291908181526020018280546104ef90612a62565b801561053c5780601f106105115761010080835404028352916020019161053c565b820191906000526020600020905b81548152906001019060200180831161051f57829003601f168201915b5050505050905090565b600081815260cb60205260408120546001600160a01b03166105c45760405162461bcd60e51b815260206004820152602c60248201527f4552433732313a20617070726f76656420717565727920666f72206e6f6e657860448201526b34b9ba32b73a103a37b5b2b760a11b60648201526084015b60405180910390fd5b50600090815260cd60205260409020546001600160a01b031690565b60006105eb82610a32565b9050806001600160a01b0316836001600160a01b031614156106595760405162461bcd60e51b815260206004820152602160248201527f4552433732313a20617070726f76616c20746f2063757272656e74206f776e656044820152603960f91b60648201526084016105bb565b336001600160a01b038216148061067557506106758133610473565b6106e75760405162461bcd60e51b815260206004820152603860248201527f4552433732313a20617070726f76652063616c6c6572206973206e6f74206f7760448201527f6e6572206e6f7220617070726f76656420666f7220616c6c000000000000000060648201526084016105bb565b6106f18383610ecc565b505050565b610701335b82610f3a565b61071d5760405162461bcd60e51b81526004016105bb9061296c565b6106f1838383611031565b60008281526065602052604090206001015461074581335b6111dc565b6106f18383611240565b600061075a83610b67565b82106107bc5760405162461bcd60e51b815260206004820152602b60248201527f455243373231456e756d657261626c653a206f776e657220696e646578206f7560448201526a74206f6620626f756e647360a81b60648201526084016105bb565b506001600160a01b038216600090815260fb602090815260408083208484529091529020545b92915050565b6001600160a01b03811633146108585760405162461bcd60e51b815260206004820152602f60248201527f416363657373436f6e74726f6c3a2063616e206f6e6c792072656e6f756e636560448201526e103937b632b9903337b91039b2b63360891b60648201526084016105bb565b6108628282611262565b5050565b61087e600080516020612b25833981519152336103a2565b6108f2576040805162461bcd60e51b81526020600482015260248101919091527f4552433732315072657365744d696e7465725061757365724175746f49643a2060448201527f6d75737420686176652070617573657220726f6c6520746f20756e706175736560648201526084016105bb565b6108fa611284565b565b6106f183838360405180602001604052806000815250610d5e565b610920336106fb565b6109855760405162461bcd60e51b815260206004820152603060248201527f4552433732314275726e61626c653a2063616c6c6572206973206e6f74206f7760448201526f1b995c881b9bdc88185c1c1c9bdd995960821b60648201526084016105bb565b61098e81611319565b50565b600061099c60fd5490565b82106109ff5760405162461bcd60e51b815260206004820152602c60248201527f455243373231456e756d657261626c653a20676c6f62616c20696e646578206f60448201526b7574206f6620626f756e647360a01b60648201526084016105bb565b60fd8281548110610a2057634e487b7160e01b600052603260045260246000fd5b90600052602060002001549050919050565b600081815260cb60205260408120546001600160a01b0316806104ac5760405162461bcd60e51b815260206004820152602960248201527f4552433732313a206f776e657220717565727920666f72206e6f6e657869737460448201526832b73a103a37b5b2b760b91b60648201526084016105bb565b610ad37f9f2df0fed2c77648de5860a4cc508cd0818c85b8b8a1ab4ceeef8d981c8956a6336103a2565b610b455760405162461bcd60e51b815260206004820152603d60248201527f4552433732315072657365744d696e7465725061757365724175746f49643a2060448201527f6d7573742068617665206d696e74657220726f6c6520746f206d696e7400000060648201526084016105bb565b610b5881610b536101c35490565b6113c0565b61098e6101c380546001019055565b60006001600160a01b038216610bd25760405162461bcd60e51b815260206004820152602a60248201527f4552433732313a2062616c616e636520717565727920666f7220746865207a65604482015269726f206164647265737360b01b60648201526084016105bb565b506001600160a01b0316600090815260cc602052604090205490565b610c06600080516020612b25833981519152336103a2565b610c785760405162461bcd60e51b815260206004820152603e60248201527f4552433732315072657365744d696e7465725061757365724175746f49643a2060448201527f6d75737420686176652070617573657220726f6c6520746f207061757365000060648201526084016105bb565b6108fa61150e565b6000828152609760205260408120610c98908361158b565b9392505050565b60009182526065602090815260408084206001600160a01b0393909316845291905290205460ff1690565b606060ca80546104c390612a62565b610862338383611597565b600054610100900460ff1680610cfd575060005460ff16155b610d195760405162461bcd60e51b81526004016105bb9061291e565b600054610100900460ff16158015610d3b576000805461ffff19166101011790555b610d46848484611666565b8015610d58576000805461ff00191690555b50505050565b610d683383610f3a565b610d845760405162461bcd60e51b81526004016105bb9061296c565b610d5884848484611712565b600081815260cb60205260409020546060906001600160a01b0316610e0f5760405162461bcd60e51b815260206004820152602f60248201527f4552433732314d657461646174613a2055524920717565727920666f72206e6f60448201526e3732bc34b9ba32b73a103a37b5b2b760891b60648201526084016105bb565b6000610e19611745565b90506000815111610e395760405180602001604052806000815250610c98565b80610e4384611755565b604051602001610e549291906127d8565b6040516020818303038152906040529392505050565b60008181526097602052604081206104ac90611870565b600082815260656020526040902060010154610e9d8133610740565b6106f18383611262565b60006001600160e01b0319821663780e9d6360e01b14806104ac57506104ac8261187a565b600081815260cd6020526040902080546001600160a01b0319166001600160a01b0384169081179091558190610f0182610a32565b6001600160a01b03167f8c5be1e5ebec7d5bd14f71427d1e84f3dd0314c0f7b2291e5b200ac8c7c3b92560405160405180910390a45050565b600081815260cb60205260408120546001600160a01b0316610fb35760405162461bcd60e51b815260206004820152602c60248201527f4552433732313a206f70657261746f7220717565727920666f72206e6f6e657860448201526b34b9ba32b73a103a37b5b2b760a11b60648201526084016105bb565b6000610fbe83610a32565b9050806001600160a01b0316846001600160a01b03161480610ff95750836001600160a01b0316610fee84610546565b6001600160a01b0316145b8061102957506001600160a01b03808216600090815260ce602090815260408083209388168352929052205460ff165b949350505050565b826001600160a01b031661104482610a32565b6001600160a01b0316146110ac5760405162461bcd60e51b815260206004820152602960248201527f4552433732313a207472616e73666572206f6620746f6b656e2074686174206960448201526839903737ba1037bbb760b91b60648201526084016105bb565b6001600160a01b03821661110e5760405162461bcd60e51b8152602060048201526024808201527f4552433732313a207472616e7366657220746f20746865207a65726f206164646044820152637265737360e01b60648201526084016105bb565b6111198383836118ba565b611124600082610ecc565b6001600160a01b038316600090815260cc6020526040812080546001929061114d908490612a08565b90915550506001600160a01b038216600090815260cc6020526040812080546001929061117b9084906129bd565b9091555050600081815260cb602052604080822080546001600160a01b0319166001600160a01b0386811691821790925591518493918716917fddf252ad1be2c89b69c2b068fc378daa952ba7f163c4a11628f55a4df523b3ef91a4505050565b6111e68282610c9f565b610862576111fe816001600160a01b031660146118c5565b6112098360206118c5565b60405160200161121a929190612807565b60408051601f198184030181529082905262461bcd60e51b82526105bb916004016128b9565b61124a8282611aa7565b60008281526097602052604090206106f19082611b2d565b61126c8282611b42565b60008281526097602052604090206106f19082611ba9565b61015f5460ff166112ce5760405162461bcd60e51b815260206004820152601460248201527314185d5cd8589b194e881b9bdd081c185d5cd95960621b60448201526064016105bb565b61015f805460ff191690557f5db9ee0a495bf2e6ff9c91a7834c1ba4fdd244a5e8aa4e537bd38aeae4b073aa335b6040516001600160a01b03909116815260200160405180910390a1565b600061132482610a32565b9050611332816000846118ba565b61133d600083610ecc565b6001600160a01b038116600090815260cc60205260408120805460019290611366908490612a08565b9091555050600082815260cb602052604080822080546001600160a01b0319169055518391906001600160a01b038416907fddf252ad1be2c89b69c2b068fc378daa952ba7f163c4a11628f55a4df523b3ef908390a45050565b6001600160a01b0382166114165760405162461bcd60e51b815260206004820181905260248201527f4552433732313a206d696e7420746f20746865207a65726f206164647265737360448201526064016105bb565b600081815260cb60205260409020546001600160a01b03161561147b5760405162461bcd60e51b815260206004820152601c60248201527f4552433732313a20746f6b656e20616c7265616479206d696e7465640000000060448201526064016105bb565b611487600083836118ba565b6001600160a01b038216600090815260cc602052604081208054600192906114b09084906129bd565b9091555050600081815260cb602052604080822080546001600160a01b0319166001600160a01b03861690811790915590518392907fddf252ad1be2c89b69c2b068fc378daa952ba7f163c4a11628f55a4df523b3ef908290a45050565b61015f5460ff16156115555760405162461bcd60e51b815260206004820152601060248201526f14185d5cd8589b194e881c185d5cd95960821b60448201526064016105bb565b61015f805460ff191660011790557f62e78cea01bee320cd4e420270b5ea74000d11b0c9f74754ebdbfc544b05a2586112fc3390565b6000610c988383611bbe565b816001600160a01b0316836001600160a01b031614156115f95760405162461bcd60e51b815260206004820152601960248201527f4552433732313a20617070726f766520746f2063616c6c65720000000000000060448201526064016105bb565b6001600160a01b03838116600081815260ce6020908152604080832094871680845294825291829020805460ff191686151590811790915591519182527f17307eab39ab6107e8899845ad3d59bd9653f200f220920489ca2b5937696c31910160405180910390a3505050565b600054610100900460ff168061167f575060005460ff16155b61169b5760405162461bcd60e51b81526004016105bb9061291e565b600054610100900460ff161580156116bd576000805461ffff19166101011790555b6116c5611bf6565b6116cd611bf6565b6116d5611bf6565b6116dd611bf6565b6116e78484611c61565b6116ef611bf6565b6116f7611bf6565b6116ff611cf6565b611707611bf6565b610d46848484611d6c565b61171d848484611031565b61172984848484611e26565b610d585760405162461bcd60e51b81526004016105bb906128cc565b60606101c480546104c390612a62565b60608161177a57506040805180820190915260018152600360fc1b60208201526104af565b8160005b81156117a4578061178e81612a9d565b915061179d9050600a836129d5565b915061177e565b60008167ffffffffffffffff8111156117cd57634e487b7160e01b600052604160045260246000fd5b6040519080825280601f01601f1916602001820160405280156117f7576020820181803683370190505b5090505b84156110295761180c600183612a08565b9150611819600a86612ab8565b6118249060306129bd565b60f81b81838151811061184757634e487b7160e01b600052603260045260246000fd5b60200101906001600160f81b031916908160001a905350611869600a866129d5565b94506117fb565b60006104ac825490565b60006001600160e01b031982166380ac58cd60e01b14806118ab57506001600160e01b03198216635b5e139f60e01b145b806104ac57506104ac82611f33565b6106f1838383611f58565b606060006118d48360026129e9565b6118df9060026129bd565b67ffffffffffffffff81111561190557634e487b7160e01b600052604160045260246000fd5b6040519080825280601f01601f19166020018201604052801561192f576020820181803683370190505b509050600360fc1b8160008151811061195857634e487b7160e01b600052603260045260246000fd5b60200101906001600160f81b031916908160001a905350600f60fb1b8160018151811061199557634e487b7160e01b600052603260045260246000fd5b60200101906001600160f81b031916908160001a90535060006119b98460026129e9565b6119c49060016129bd565b90505b6001811115611a58576f181899199a1a9b1b9c1cb0b131b232b360811b85600f1660108110611a0657634e487b7160e01b600052603260045260246000fd5b1a60f81b828281518110611a2a57634e487b7160e01b600052603260045260246000fd5b60200101906001600160f81b031916908160001a90535060049490941c93611a5181612a4b565b90506119c7565b508315610c985760405162461bcd60e51b815260206004820181905260248201527f537472696e67733a20686578206c656e67746820696e73756666696369656e7460448201526064016105bb565b611ab18282610c9f565b6108625760008281526065602090815260408083206001600160a01b03851684529091529020805460ff19166001179055611ae93390565b6001600160a01b0316816001600160a01b0316837f2f8788117e7eff1d82e926ec794901d17c78024a50270940304540a733656f0d60405160405180910390a45050565b6000610c98836001600160a01b038416611fcb565b611b4c8282610c9f565b156108625760008281526065602090815260408083206001600160a01b0385168085529252808320805460ff1916905551339285917ff6391f5c32d9c69d2a47ea670b442974b53935d1edc7fd64eb21e047a839171b9190a45050565b6000610c98836001600160a01b03841661201a565b6000826000018281548110611be357634e487b7160e01b600052603260045260246000fd5b9060005260206000200154905092915050565b600054610100900460ff1680611c0f575060005460ff16155b611c2b5760405162461bcd60e51b81526004016105bb9061291e565b600054610100900460ff16158015611c4d576000805461ffff19166101011790555b801561098e576000805461ff001916905550565b600054610100900460ff1680611c7a575060005460ff16155b611c965760405162461bcd60e51b81526004016105bb9061291e565b600054610100900460ff16158015611cb8576000805461ffff19166101011790555b8251611ccb9060c99060208601906123ed565b508151611cdf9060ca9060208501906123ed565b5080156106f1576000805461ff0019169055505050565b600054610100900460ff1680611d0f575060005460ff16155b611d2b5760405162461bcd60e51b81526004016105bb9061291e565b600054610100900460ff16158015611d4d576000805461ffff19166101011790555b61015f805460ff19169055801561098e576000805461ff001916905550565b600054610100900460ff1680611d85575060005460ff16155b611da15760405162461bcd60e51b81526004016105bb9061291e565b600054610100900460ff16158015611dc3576000805461ffff19166101011790555b8151611dd7906101c49060208501906123ed565b50611de46000335b612137565b611e0e7f9f2df0fed2c77648de5860a4cc508cd0818c85b8b8a1ab4ceeef8d981c8956a633611ddf565b610d46600080516020612b2583398151915233611ddf565b60006001600160a01b0384163b15611f2857604051630a85bd0160e11b81526001600160a01b0385169063150b7a0290611e6a90339089908890889060040161287c565b602060405180830381600087803b158015611e8457600080fd5b505af1925050508015611eb4575060408051601f3d908101601f19168201909252611eb19181019061270c565b60015b611f0e573d808015611ee2576040519150601f19603f3d011682016040523d82523d6000602084013e611ee7565b606091505b508051611f065760405162461bcd60e51b81526004016105bb906128cc565b805181602001fd5b6001600160e01b031916630a85bd0160e11b149050611029565b506001949350505050565b60006001600160e01b03198216635a05180f60e01b14806104ac57506104ac82612141565b611f63838383612176565b61015f5460ff16156106f15760405162461bcd60e51b815260206004820152602b60248201527f4552433732315061757361626c653a20746f6b656e207472616e73666572207760448201526a1a1a5b19481c185d5cd95960aa1b60648201526084016105bb565b6000818152600183016020526040812054612012575081546001818101845560008481526020808220909301849055845484825282860190935260409020919091556107e2565b5060006107e2565b6000818152600183016020526040812054801561212d57600061203e600183612a08565b855490915060009061205290600190612a08565b90508181146120d357600086600001828154811061208057634e487b7160e01b600052603260045260246000fd5b90600052602060002001549050808760000184815481106120b157634e487b7160e01b600052603260045260246000fd5b6000918252602080832090910192909255918252600188019052604090208390555b85548690806120f257634e487b7160e01b600052603160045260246000fd5b6001900381819060005260206000200160009055905585600101600086815260200190815260200160002060009055600193505050506107e2565b60009150506107e2565b6108628282611240565b60006001600160e01b03198216637965db0b60e01b14806104ac57506301ffc9a760e01b6001600160e01b03198316146104ac565b6001600160a01b0383166121d1576121cc8160fd8054600083815260fe60205260408120829055600182018355919091527f9346ac6dd7de6b96975fec380d4d994c4c12e6a8897544f22915316cc6cca2800155565b6121f4565b816001600160a01b0316836001600160a01b0316146121f4576121f48382612233565b6001600160a01b0382166122105761220b816122d0565b6106f1565b826001600160a01b0316826001600160a01b0316146106f1576106f182826123a9565b6000600161224084610b67565b61224a9190612a08565b600083815260fc602052604090205490915080821461229d576001600160a01b038416600090815260fb60209081526040808320858452825280832054848452818420819055835260fc90915290208190555b50600091825260fc602090815260408084208490556001600160a01b03909416835260fb81528383209183525290812055565b60fd546000906122e290600190612a08565b600083815260fe602052604081205460fd805493945090928490811061231857634e487b7160e01b600052603260045260246000fd5b906000526020600020015490508060fd838154811061234757634e487b7160e01b600052603260045260246000fd5b600091825260208083209091019290925582815260fe909152604080822084905585825281205560fd80548061238d57634e487b7160e01b600052603160045260246000fd5b6001900381819060005260206000200160009055905550505050565b60006123b483610b67565b6001600160a01b03909316600090815260fb60209081526040808320868452825280832085905593825260fc9052919091209190915550565b8280546123f990612a62565b90600052602060002090601f01602090048101928261241b5760008555612461565b82601f1061243457805160ff1916838001178555612461565b82800160010185558215612461579182015b82811115612461578251825591602001919060010190612446565b5061246d929150612471565b5090565b5b8082111561246d5760008155600101612472565b600067ffffffffffffffff808411156124a1576124a1612af8565b604051601f8501601f19908116603f011681019082821181831017156124c9576124c9612af8565b816040528093508581528686860111156124e257600080fd5b858560208301376000602087830101525050509392505050565b80356001600160a01b03811681146104af57600080fd5b600082601f830112612523578081fd5b610c9883833560208501612486565b600060208284031215612543578081fd5b610c98826124fc565b6000806040838503121561255e578081fd5b612567836124fc565b9150612575602084016124fc565b90509250929050565b600080600060608486031215612592578081fd5b61259b846124fc565b92506125a9602085016124fc565b9150604084013590509250925092565b600080600080608085870312156125ce578081fd5b6125d7856124fc565b93506125e5602086016124fc565b925060408501359150606085013567ffffffffffffffff811115612607578182fd5b8501601f81018713612617578182fd5b61262687823560208401612486565b91505092959194509250565b60008060408385031215612644578182fd5b61264d836124fc565b915060208301358015158114612661578182fd5b809150509250929050565b6000806040838503121561267e578182fd5b612687836124fc565b946020939093013593505050565b6000602082840312156126a6578081fd5b5035919050565b600080604083850312156126bf578182fd5b82359150612575602084016124fc565b600080604083850312156126e1578182fd5b50508035926020909101359150565b600060208284031215612701578081fd5b8135610c9881612b0e565b60006020828403121561271d578081fd5b8151610c9881612b0e565b60008060006060848603121561273c578283fd5b833567ffffffffffffffff80821115612753578485fd5b61275f87838801612513565b94506020860135915080821115612774578384fd5b61278087838801612513565b93506040860135915080821115612795578283fd5b506127a286828701612513565b9150509250925092565b600081518084526127c4816020860160208601612a1f565b601f01601f19169290920160200192915050565b600083516127ea818460208801612a1f565b8351908301906127fe818360208801612a1f565b01949350505050565b60007f416363657373436f6e74726f6c3a206163636f756e74200000000000000000008252835161283f816017850160208801612a1f565b7001034b99036b4b9b9b4b733903937b6329607d1b6017918401918201528351612870816028840160208801612a1f565b01602801949350505050565b6001600160a01b03858116825284166020820152604081018390526080606082018190526000906128af908301846127ac565b9695505050505050565b600060208252610c9860208301846127ac565b60208082526032908201527f4552433732313a207472616e7366657220746f206e6f6e20455243373231526560408201527131b2b4bb32b91034b6b83632b6b2b73a32b960711b606082015260800190565b6020808252602e908201527f496e697469616c697a61626c653a20636f6e747261637420697320616c72656160408201526d191e481a5b9a5d1a585b1a5e995960921b606082015260800190565b60208082526031908201527f4552433732313a207472616e736665722063616c6c6572206973206e6f74206f6040820152701ddb995c881b9bdc88185c1c1c9bdd9959607a1b606082015260800190565b600082198211156129d0576129d0612acc565b500190565b6000826129e4576129e4612ae2565b500490565b6000816000190483118215151615612a0357612a03612acc565b500290565b600082821015612a1a57612a1a612acc565b500390565b60005b83811015612a3a578181015183820152602001612a22565b83811115610d585750506000910152565b600081612a5a57612a5a612acc565b506000190190565b600181811c90821680612a7657607f821691505b60208210811415612a9757634e487b7160e01b600052602260045260246000fd5b50919050565b6000600019821415612ab157612ab1612acc565b5060010190565b600082612ac757612ac7612ae2565b500690565b634e487b7160e01b600052601160045260246000fd5b634e487b7160e01b600052601260045260246000fd5b634e487b7160e01b600052604160045260246000fd5b6001600160e01b03198116811461098e57600080fdfe65d7a28e3265b37a6474929f336521b332c1681b933f6cb9f3376673440d862aa26469706673582212205693a071a4a07ab551dc58dc3752b90c8655db28c8fd56c9db2f90dde45fc3fe64736f6c63430008030033",
  "linkReferences": {},
  "deployedLinkReferences": {}
}